{
  "_format": "hh-sol-artifact-1",
  "contractName": "Market",
  "sourceName": "contracts/nft/Market.sol",
  "abi": [
    {
      "inputs": [
        {
          "internalType": "contract ERC721",
          "name": "_nft",
          "type": "address"
        }
      ],
      "stateMutability": "nonpayable",
      "type": "constructor"
    },
    {
      "anonymous": false,
      "inputs": [
        {
          "indexed": true,
          "internalType": "address",
          "name": "initiator",
          "type": "address"
        },
        {
          "indexed": true,
          "internalType": "uint256",
          "name": "id",
          "type": "uint256"
        },
        {
          "indexed": false,
          "internalType": "uint256",
          "name": "timestamp",
          "type": "uint256"
        }
      ],
      "name": "itemDelist",
      "type": "event"
    },
    {
      "anonymous": false,
      "inputs": [
        {
          "indexed": true,
          "internalType": "address",
          "name": "seller",
          "type": "address"
        },
        {
          "indexed": true,
          "internalType": "uint256",
          "name": "id",
          "type": "uint256"
        },
        {
          "indexed": false,
          "internalType": "uint256",
          "name": "price",
          "type": "uint256"
        },
        {
          "indexed": false,
          "internalType": "uint256",
          "name": "timestamp",
          "type": "uint256"
        }
      ],
      "name": "itemList",
      "type": "event"
    },
    {
      "anonymous": false,
      "inputs": [
        {
          "indexed": true,
          "internalType": "address",
          "name": "seller",
          "type": "address"
        },
        {
          "indexed": true,
          "internalType": "address",
          "name": "buyer",
          "type": "address"
        },
        {
          "indexed": true,
          "internalType": "uint256",
          "name": "id",
          "type": "uint256"
        },
        {
          "indexed": false,
          "internalType": "uint256",
          "name": "price",
          "type": "uint256"
        },
        {
          "indexed": false,
          "internalType": "uint256",
          "name": "timestamp",
          "type": "uint256"
        }
      ],
      "name": "itemSell",
      "type": "event"
    },
    {
      "inputs": [
        {
          "internalType": "uint256",
          "name": "_id",
          "type": "uint256"
        }
      ],
      "name": "buyItem",
      "outputs": [],
      "stateMutability": "payable",
      "type": "function"
    },
    {
      "inputs": [
        {
          "internalType": "uint256",
          "name": "_id",
          "type": "uint256"
        }
      ],
      "name": "delistItem",
      "outputs": [],
      "stateMutability": "nonpayable",
      "type": "function"
    },
    {
      "inputs": [
        {
          "internalType": "uint256",
          "name": "_id",
          "type": "uint256"
        }
      ],
      "name": "getItem",
      "outputs": [
        {
          "components": [
            {
              "internalType": "uint256",
              "name": "idNft",
              "type": "uint256"
            },
            {
              "internalType": "string",
              "name": "url",
              "type": "string"
            },
            {
              "internalType": "uint256",
              "name": "price",
              "type": "uint256"
            },
            {
              "internalType": "string",
              "name": "description",
              "type": "string"
            },
            {
              "internalType": "uint256",
              "name": "startSale",
              "type": "uint256"
            },
            {
              "internalType": "uint256",
              "name": "endSale",
              "type": "uint256"
            },
            {
              "internalType": "address",
              "name": "seller",
              "type": "address"
            }
          ],
          "internalType": "struct Market.Item",
          "name": "",
          "type": "tuple"
        }
      ],
      "stateMutability": "view",
      "type": "function"
    },
    {
      "inputs": [],
      "name": "getList",
      "outputs": [
        {
          "components": [
            {
              "internalType": "uint256",
              "name": "idNft",
              "type": "uint256"
            },
            {
              "internalType": "string",
              "name": "url",
              "type": "string"
            },
            {
              "internalType": "uint256",
              "name": "price",
              "type": "uint256"
            },
            {
              "internalType": "string",
              "name": "description",
              "type": "string"
            },
            {
              "internalType": "uint256",
              "name": "startSale",
              "type": "uint256"
            },
            {
              "internalType": "uint256",
              "name": "endSale",
              "type": "uint256"
            },
            {
              "internalType": "address",
              "name": "seller",
              "type": "address"
            }
          ],
          "internalType": "struct Market.Item[]",
          "name": "",
          "type": "tuple[]"
        }
      ],
      "stateMutability": "view",
      "type": "function"
    },
    {
      "inputs": [],
      "name": "getVolume",
      "outputs": [
        {
          "internalType": "uint256",
          "name": "",
          "type": "uint256"
        }
      ],
      "stateMutability": "view",
      "type": "function"
    },
    {
      "inputs": [
        {
          "internalType": "uint256",
          "name": "",
          "type": "uint256"
        }
      ],
      "name": "items",
      "outputs": [
        {
          "internalType": "uint256",
          "name": "idNft",
          "type": "uint256"
        },
        {
          "internalType": "string",
          "name": "url",
          "type": "string"
        },
        {
          "internalType": "uint256",
          "name": "price",
          "type": "uint256"
        },
        {
          "internalType": "string",
          "name": "description",
          "type": "string"
        },
        {
          "internalType": "uint256",
          "name": "startSale",
          "type": "uint256"
        },
        {
          "internalType": "uint256",
          "name": "endSale",
          "type": "uint256"
        },
        {
          "internalType": "address",
          "name": "seller",
          "type": "address"
        }
      ],
      "stateMutability": "view",
      "type": "function"
    },
    {
      "inputs": [
        {
          "internalType": "uint256",
          "name": "_id",
          "type": "uint256"
        },
        {
          "internalType": "uint256",
          "name": "_price",
          "type": "uint256"
        },
        {
          "internalType": "string",
          "name": "_description",
          "type": "string"
        },
        {
          "internalType": "uint256",
          "name": "_endSale",
          "type": "uint256"
        }
      ],
      "name": "listItem",
      "outputs": [],
      "stateMutability": "nonpayable",
      "type": "function"
    },
    {
      "inputs": [],
      "name": "nft",
      "outputs": [
        {
          "internalType": "contract ERC721",
          "name": "",
          "type": "address"
        }
      ],
      "stateMutability": "view",
      "type": "function"
    },
    {
      "inputs": [
        {
          "internalType": "address payable",
          "name": "_to",
          "type": "address"
        }
      ],
      "name": "withdraw",
      "outputs": [],
      "stateMutability": "nonpayable",
      "type": "function"
    }
  ],
  "bytecode": "0x6080604052600a60025560006003553480156200001b57600080fd5b50604051620027b2380380620027b28339818101604052810190620000419190620000e0565b806000806101000a81548173ffffffffffffffffffffffffffffffffffffffff021916908373ffffffffffffffffffffffffffffffffffffffff16021790555033600160006101000a81548173ffffffffffffffffffffffffffffffffffffffff021916908373ffffffffffffffffffffffffffffffffffffffff160217905550506200016e565b600081519050620000da8162000154565b92915050565b600060208284031215620000f357600080fd5b60006200010384828501620000c9565b91505092915050565b6000620001198262000134565b9050919050565b60006200012d826200010c565b9050919050565b600073ffffffffffffffffffffffffffffffffffffffff82169050919050565b6200015f8162000120565b81146200016b57600080fd5b50565b612634806200017e6000396000f3fe6080604052600436106100865760003560e01c8063942b765a11610059578063942b765a14610145578063ae71343614610170578063bfb231d214610199578063c67bbc24146101dc578063e7fb74c71461020757610086565b8063100616311461008b5780633129e773146100b457806347ccca02146100f157806351cff8d91461011c575b600080fd5b34801561009757600080fd5b506100b260048036038101906100ad9190611b18565b610223565b005b3480156100c057600080fd5b506100db60048036038101906100d69190611b18565b610501565b6040516100e8919061200b565b60405180910390f35b3480156100fd57600080fd5b50610106610757565b6040516101139190611f50565b60405180910390f35b34801561012857600080fd5b50610143600480360381019061013e9190611aae565b61077b565b005b34801561015157600080fd5b5061015a610855565b6040516101679190611f2e565b60405180910390f35b34801561017c57600080fd5b5061019760048036038101906101929190611b41565b610a56565b005b3480156101a557600080fd5b506101c060048036038101906101bb9190611b18565b610e2b565b6040516101d39796959493929190612048565b60405180910390f35b3480156101e857600080fd5b506101f1610fad565b6040516101fe919061202d565b60405180910390f35b610221600480360381019061021c9190611b18565b610fb7565b005b600061022e82611424565b90506065811415610274576040517f08c379a000000000000000000000000000000000000000000000000000000000815260040161026b90611f6b565b60405180910390fd5b600481815481106102ae577f4e487b7100000000000000000000000000000000000000000000000000000000600052603260045260246000fd5b906000526020600020906007020160060160009054906101000a900473ffffffffffffffffffffffffffffffffffffffff1673ffffffffffffffffffffffffffffffffffffffff163373ffffffffffffffffffffffffffffffffffffffff1614806103665750600160009054906101000a900473ffffffffffffffffffffffffffffffffffffffff1673ffffffffffffffffffffffffffffffffffffffff163373ffffffffffffffffffffffffffffffffffffffff16145b6103a5576040517f08c379a000000000000000000000000000000000000000000000000000000000815260040161039c90611fcb565b60405180910390fd5b6000600482815481106103e1577f4e487b7100000000000000000000000000000000000000000000000000000000600052603260045260246000fd5b906000526020600020906007020160060160009054906101000a900473ffffffffffffffffffffffffffffffffffffffff16905060008054906101000a900473ffffffffffffffffffffffffffffffffffffffff1673ffffffffffffffffffffffffffffffffffffffff1663bcf0dd8e3083866040518463ffffffff1660e01b815260040161047293929190611ef7565b600060405180830381600087803b15801561048c57600080fd5b505af11580156104a0573d6000803e3d6000fd5b505050506104ad826114b3565b823373ffffffffffffffffffffffffffffffffffffffff167fabc3171d7d5979416cf58b1b720079ed4fff828e48eb43adc1f5ddeb24c593ef426040516104f4919061202d565b60405180910390a3505050565b6105096117b3565b600061051483611424565b9050606581141561055a576040517f08c379a000000000000000000000000000000000000000000000000000000000815260040161055190611f6b565b60405180910390fd5b60048181548110610594577f4e487b7100000000000000000000000000000000000000000000000000000000600052603260045260246000fd5b90600052602060002090600702016040518060e0016040529081600082015481526020016001820180546105c790612373565b80601f01602080910402602001604051908101604052809291908181526020018280546105f390612373565b80156106405780601f1061061557610100808354040283529160200191610640565b820191906000526020600020905b81548152906001019060200180831161062357829003601f168201915b505050505081526020016002820154815260200160038201805461066390612373565b80601f016020809104026020016040519081016040528092919081815260200182805461068f90612373565b80156106dc5780601f106106b1576101008083540402835291602001916106dc565b820191906000526020600020905b8154815290600101906020018083116106bf57829003601f168201915b5050505050815260200160048201548152602001600582015481526020016006820160009054906101000a900473ffffffffffffffffffffffffffffffffffffffff1673ffffffffffffffffffffffffffffffffffffffff1673ffffffffffffffffffffffffffffffffffffffff1681525050915050919050565b60008054906101000a900473ffffffffffffffffffffffffffffffffffffffff1681565b3373ffffffffffffffffffffffffffffffffffffffff16600160009054906101000a900473ffffffffffffffffffffffffffffffffffffffff1673ffffffffffffffffffffffffffffffffffffffff161461080b576040517f08c379a000000000000000000000000000000000000000000000000000000000815260040161080290611f8b565b60405180910390fd5b8073ffffffffffffffffffffffffffffffffffffffff166108fc479081150290604051600060405180830381858888f19350505050158015610851573d6000803e3d6000fd5b5050565b60606004805480602002602001604051908101604052809291908181526020016000905b82821015610a4d57838290600052602060002090600702016040518060e0016040529081600082015481526020016001820180546108b690612373565b80601f01602080910402602001604051908101604052809291908181526020018280546108e290612373565b801561092f5780601f106109045761010080835404028352916020019161092f565b820191906000526020600020905b81548152906001019060200180831161091257829003601f168201915b505050505081526020016002820154815260200160038201805461095290612373565b80601f016020809104026020016040519081016040528092919081815260200182805461097e90612373565b80156109cb5780601f106109a0576101008083540402835291602001916109cb565b820191906000526020600020905b8154815290600101906020018083116109ae57829003601f168201915b5050505050815260200160048201548152602001600582015481526020016006820160009054906101000a900473ffffffffffffffffffffffffffffffffffffffff1673ffffffffffffffffffffffffffffffffffffffff1673ffffffffffffffffffffffffffffffffffffffff168152505081526020019060010190610879565b50505050905090565b3073ffffffffffffffffffffffffffffffffffffffff1660008054906101000a900473ffffffffffffffffffffffffffffffffffffffff1673ffffffffffffffffffffffffffffffffffffffff1663081812fc866040518263ffffffff1660e01b8152600401610ac6919061202d565b60206040518083038186803b158015610ade57600080fd5b505afa158015610af2573d6000803e3d6000fd5b505050506040513d601f19601f82011682018060405250810190610b169190611a85565b73ffffffffffffffffffffffffffffffffffffffff1614610b6c576040517f08c379a0000000000000000000000000000000000000000000000000000000008152600401610b6390611feb565b60405180910390fd5b60008060009054906101000a900473ffffffffffffffffffffffffffffffffffffffff1673ffffffffffffffffffffffffffffffffffffffff1663c87b56dd866040518263ffffffff1660e01b8152600401610bc8919061202d565b60006040518083038186803b158015610be057600080fd5b505afa158015610bf4573d6000803e3d6000fd5b505050506040513d6000823e3d601f19601f82011682018060405250810190610c1d9190611ad7565b905060006040518060e001604052808781526020018381526020018681526020018581526020014281526020018481526020013373ffffffffffffffffffffffffffffffffffffffff1681525090506004819080600181540180825580915050600190039060005260206000209060070201600090919091909150600082015181600001556020820151816001019080519060200190610cbe929190611806565b50604082015181600201556060820151816003019080519060200190610ce5929190611806565b506080820151816004015560a0820151816005015560c08201518160060160006101000a81548173ffffffffffffffffffffffffffffffffffffffff021916908373ffffffffffffffffffffffffffffffffffffffff160217905550505060008054906101000a900473ffffffffffffffffffffffffffffffffffffffff1673ffffffffffffffffffffffffffffffffffffffff1663bcf0dd8e3330896040518463ffffffff1660e01b8152600401610da093929190611ef7565b600060405180830381600087803b158015610dba57600080fd5b505af1158015610dce573d6000803e3d6000fd5b50505050853373ffffffffffffffffffffffffffffffffffffffff167fe9d17b30ec72b33f37789fec6abc80a3547e5410ac2130c076d509bdce0a22248742604051610e1b9291906120c5565b60405180910390a3505050505050565b60048181548110610e3b57600080fd5b9060005260206000209060070201600091509050806000015490806001018054610e6490612373565b80601f0160208091040260200160405190810160405280929190818152602001828054610e9090612373565b8015610edd5780601f10610eb257610100808354040283529160200191610edd565b820191906000526020600020905b815481529060010190602001808311610ec057829003601f168201915b505050505090806002015490806003018054610ef890612373565b80601f0160208091040260200160405190810160405280929190818152602001828054610f2490612373565b8015610f715780601f10610f4657610100808354040283529160200191610f71565b820191906000526020600020905b815481529060010190602001808311610f5457829003601f168201915b5050505050908060040154908060050154908060060160009054906101000a900473ffffffffffffffffffffffffffffffffffffffff16905087565b6000600354905090565b6000610fc282611424565b90506065811415611008576040517f08c379a0000000000000000000000000000000000000000000000000000000008152600401610fff90611f6b565b60405180910390fd5b60048181548110611042577f4e487b7100000000000000000000000000000000000000000000000000000000600052603260045260246000fd5b906000526020600020906007020160060160009054906101000a900473ffffffffffffffffffffffffffffffffffffffff1673ffffffffffffffffffffffffffffffffffffffff163373ffffffffffffffffffffffffffffffffffffffff1614156110e2576040517f08c379a00000000000000000000000000000000000000000000000000000000081526004016110d990611f6b565b60405180910390fd5b6004818154811061111c577f4e487b7100000000000000000000000000000000000000000000000000000000600052603260045260246000fd5b906000526020600020906007020160020154341461116f576040517f08c379a000000000000000000000000000000000000000000000000000000000815260040161116690611fab565b60405180910390fd5b346003600082825461118191906121aa565b925050819055506000600482815481106111c4577f4e487b7100000000000000000000000000000000000000000000000000000000600052603260045260246000fd5b906000526020600020906007020160060160009054906101000a900473ffffffffffffffffffffffffffffffffffffffff169050600060048381548110611234577f4e487b7100000000000000000000000000000000000000000000000000000000600052603260045260246000fd5b9060005260206000209060070201600201549050600060048481548110611284577f4e487b7100000000000000000000000000000000000000000000000000000000600052603260045260246000fd5b906000526020600020906007020160060160009054906101000a900473ffffffffffffffffffffffffffffffffffffffff16905060006064605a346112c99190612231565b6112d39190612200565b90508173ffffffffffffffffffffffffffffffffffffffff166108fc829081150290604051600060405180830381858888f1935050505015801561131b573d6000803e3d6000fd5b5060008054906101000a900473ffffffffffffffffffffffffffffffffffffffff1673ffffffffffffffffffffffffffffffffffffffff1663bcf0dd8e3033896040518463ffffffff1660e01b815260040161137993929190611ef7565b600060405180830381600087803b15801561139357600080fd5b505af11580156113a7573d6000803e3d6000fd5b505050506113b4856114b3565b853373ffffffffffffffffffffffffffffffffffffffff168573ffffffffffffffffffffffffffffffffffffffff167f2dc2cd3211edad39e14f38c605060b74be0b028b8769142e5c03bbbecbec9bb286426040516114149291906120c5565b60405180910390a4505050505050565b600080600090505b6004805490508110156114a8578260048281548110611474577f4e487b7100000000000000000000000000000000000000000000000000000000600052603260045260246000fd5b906000526020600020906007020160000154141561149557809150506114ae565b80806114a0906123d6565b91505061142c565b50606590505b919050565b6000819050600060016004805490506114cc919061228b565b90508082141561159357600480548061150e577f4e487b7100000000000000000000000000000000000000000000000000000000600052603160045260246000fd5b600190038181906000526020600020906007020160008082016000905560018201600061153b919061188c565b6002820160009055600382016000611553919061188c565b600482016000905560058201600090556006820160006101000a81549073ffffffffffffffffffffffffffffffffffffffff0219169055505090556117ae565b600481815481106115cd577f4e487b7100000000000000000000000000000000000000000000000000000000600052603260045260246000fd5b906000526020600020906007020160048381548110611615577f4e487b7100000000000000000000000000000000000000000000000000000000600052603260045260246000fd5b906000526020600020906007020160008201548160000155600182018160010190805461164190612373565b61164c9291906118cc565b5060028201548160020155600382018160030190805461166b90612373565b6116769291906118cc565b5060048201548160040155600582015481600501556006820160009054906101000a900473ffffffffffffffffffffffffffffffffffffffff168160060160006101000a81548173ffffffffffffffffffffffffffffffffffffffff021916908373ffffffffffffffffffffffffffffffffffffffff160217905550905050600480548061172d577f4e487b7100000000000000000000000000000000000000000000000000000000600052603160045260246000fd5b600190038181906000526020600020906007020160008082016000905560018201600061175a919061188c565b6002820160009055600382016000611772919061188c565b600482016000905560058201600090556006820160006101000a81549073ffffffffffffffffffffffffffffffffffffffff0219169055505090555b505050565b6040518060e00160405280600081526020016060815260200160008152602001606081526020016000815260200160008152602001600073ffffffffffffffffffffffffffffffffffffffff1681525090565b82805461181290612373565b90600052602060002090601f016020900481019282611834576000855561187b565b82601f1061184d57805160ff191683800117855561187b565b8280016001018555821561187b579182015b8281111561187a57825182559160200191906001019061185f565b5b5090506118889190611959565b5090565b50805461189890612373565b6000825580601f106118aa57506118c9565b601f0160209004906000526020600020908101906118c89190611959565b5b50565b8280546118d890612373565b90600052602060002090601f0160209004810192826118fa5760008555611948565b82601f1061190b5780548555611948565b8280016001018555821561194857600052602060002091601f016020900482015b8281111561194757825482559160010191906001019061192c565b5b5090506119559190611959565b5090565b5b8082111561197257600081600090555060010161195a565b5090565b600061198961198484612113565b6120ee565b9050828152602081018484840111156119a157600080fd5b6119ac848285612331565b509392505050565b60006119c76119c284612113565b6120ee565b9050828152602081018484840111156119df57600080fd5b6119ea848285612340565b509392505050565b600081519050611a01816125b9565b92915050565b600081359050611a16816125d0565b92915050565b600082601f830112611a2d57600080fd5b8135611a3d848260208601611976565b91505092915050565b600082601f830112611a5757600080fd5b8151611a678482602086016119b4565b91505092915050565b600081359050611a7f816125e7565b92915050565b600060208284031215611a9757600080fd5b6000611aa5848285016119f2565b91505092915050565b600060208284031215611ac057600080fd5b6000611ace84828501611a07565b91505092915050565b600060208284031215611ae957600080fd5b600082015167ffffffffffffffff811115611b0357600080fd5b611b0f84828501611a46565b91505092915050565b600060208284031215611b2a57600080fd5b6000611b3884828501611a70565b91505092915050565b60008060008060808587031215611b5757600080fd5b6000611b6587828801611a70565b9450506020611b7687828801611a70565b935050604085013567ffffffffffffffff811115611b9357600080fd5b611b9f87828801611a1c565b9250506060611bb087828801611a70565b91505092959194509250565b6000611bc88383611d93565b905092915050565b611bd9816122bf565b82525050565b611be8816122bf565b82525050565b6000611bf982612154565b611c038185612177565b935083602082028501611c1585612144565b8060005b85811015611c515784840389528151611c328582611bbc565b9450611c3d8361216a565b925060208a01995050600181019050611c19565b50829750879550505050505092915050565b611c6c8161230d565b82525050565b6000611c7d8261215f565b611c878185612188565b9350611c97818560208601612340565b611ca0816124db565b840191505092915050565b6000611cb68261215f565b611cc08185612199565b9350611cd0818560208601612340565b611cd9816124db565b840191505092915050565b6000611cf1600583612199565b9150611cfc826124ec565b602082019050919050565b6000611d14601583612199565b9150611d1f82612515565b602082019050919050565b6000611d37600c83612199565b9150611d428261253e565b602082019050919050565b6000611d5a601183612199565b9150611d6582612567565b602082019050919050565b6000611d7d600c83612199565b9150611d8882612590565b602082019050919050565b600060e083016000830151611dab6000860182611ed9565b5060208301518482036020860152611dc38282611c72565b9150506040830151611dd86040860182611ed9565b5060608301518482036060860152611df08282611c72565b9150506080830151611e056080860182611ed9565b5060a0830151611e1860a0860182611ed9565b5060c0830151611e2b60c0860182611bd0565b508091505092915050565b600060e083016000830151611e4e6000860182611ed9565b5060208301518482036020860152611e668282611c72565b9150506040830151611e7b6040860182611ed9565b5060608301518482036060860152611e938282611c72565b9150506080830151611ea86080860182611ed9565b5060a0830151611ebb60a0860182611ed9565b5060c0830151611ece60c0860182611bd0565b508091505092915050565b611ee281612303565b82525050565b611ef181612303565b82525050565b6000606082019050611f0c6000830186611bdf565b611f196020830185611bdf565b611f266040830184611ee8565b949350505050565b60006020820190508181036000830152611f488184611bee565b905092915050565b6000602082019050611f656000830184611c63565b92915050565b60006020820190508181036000830152611f8481611ce4565b9050919050565b60006020820190508181036000830152611fa481611d07565b9050919050565b60006020820190508181036000830152611fc481611d2a565b9050919050565b60006020820190508181036000830152611fe481611d4d565b9050919050565b6000602082019050818103600083015261200481611d70565b9050919050565b600060208201905081810360008301526120258184611e36565b905092915050565b60006020820190506120426000830184611ee8565b92915050565b600060e08201905061205d600083018a611ee8565b818103602083015261206f8189611cab565b905061207e6040830188611ee8565b81810360608301526120908187611cab565b905061209f6080830186611ee8565b6120ac60a0830185611ee8565b6120b960c0830184611bdf565b98975050505050505050565b60006040820190506120da6000830185611ee8565b6120e76020830184611ee8565b9392505050565b60006120f8612109565b905061210482826123a5565b919050565b6000604051905090565b600067ffffffffffffffff82111561212e5761212d6124ac565b5b612137826124db565b9050602081019050919050565b6000819050602082019050919050565b600081519050919050565b600081519050919050565b6000602082019050919050565b600082825260208201905092915050565b600082825260208201905092915050565b600082825260208201905092915050565b60006121b582612303565b91506121c083612303565b9250827fffffffffffffffffffffffffffffffffffffffffffffffffffffffffffffffff038211156121f5576121f461241f565b5b828201905092915050565b600061220b82612303565b915061221683612303565b9250826122265761222561244e565b5b828204905092915050565b600061223c82612303565b915061224783612303565b9250817fffffffffffffffffffffffffffffffffffffffffffffffffffffffffffffffff04831182151516156122805761227f61241f565b5b828202905092915050565b600061229682612303565b91506122a183612303565b9250828210156122b4576122b361241f565b5b828203905092915050565b60006122ca826122e3565b9050919050565b60006122dc826122e3565b9050919050565b600073ffffffffffffffffffffffffffffffffffffffff82169050919050565b6000819050919050565b60006123188261231f565b9050919050565b600061232a826122e3565b9050919050565b82818337600083830152505050565b60005b8381101561235e578082015181840152602081019050612343565b8381111561236d576000848401525b50505050565b6000600282049050600182168061238b57607f821691505b6020821081141561239f5761239e61247d565b5b50919050565b6123ae826124db565b810181811067ffffffffffffffff821117156123cd576123cc6124ac565b5b80604052505050565b60006123e182612303565b91507fffffffffffffffffffffffffffffffffffffffffffffffffffffffffffffffff8214156124145761241361241f565b5b600182019050919050565b7f4e487b7100000000000000000000000000000000000000000000000000000000600052601160045260246000fd5b7f4e487b7100000000000000000000000000000000000000000000000000000000600052601260045260246000fd5b7f4e487b7100000000000000000000000000000000000000000000000000000000600052602260045260246000fd5b7f4e487b7100000000000000000000000000000000000000000000000000000000600052604160045260246000fd5b6000601f19601f8301169050919050565b7f6572726f72000000000000000000000000000000000000000000000000000000600082015250565b7f596f7520617265206e6f7420616e206f776e6572210000000000000000000000600082015250565b7f77726f6e6720616d6f756e740000000000000000000000000000000000000000600082015250565b7f4e6f7420656e6f75676820726967687473000000000000000000000000000000600082015250565b7f6e6f7420617070726f7665640000000000000000000000000000000000000000600082015250565b6125c2816122bf565b81146125cd57600080fd5b50565b6125d9816122d1565b81146125e457600080fd5b50565b6125f081612303565b81146125fb57600080fd5b5056fea2646970667358221220adb1dfcfa31d5cf75717d4970190bb32a94e23dfa8c03fd187d3f8d8706a9f1264736f6c63430008040033",
  "linkReferences": {},
  "deployedLinkReferences": {}
}