{
  "_format": "hh-sol-artifact-1",
  "contractName": "Market",
  "sourceName": "contracts/nft/Market.sol",
  "abi": [
    {
      "inputs": [
        {
          "internalType": "contract ERC721",
          "name": "_nft",
          "type": "address"
        }
      ],
      "stateMutability": "nonpayable",
      "type": "constructor"
    },
    {
      "anonymous": false,
      "inputs": [
        {
          "indexed": true,
          "internalType": "address",
          "name": "initiator",
          "type": "address"
        },
        {
          "indexed": true,
          "internalType": "uint256",
          "name": "id",
          "type": "uint256"
        },
        {
          "indexed": false,
          "internalType": "uint256",
          "name": "timestamp",
          "type": "uint256"
        }
      ],
      "name": "itemDelist",
      "type": "event"
    },
    {
      "anonymous": false,
      "inputs": [
        {
          "indexed": true,
          "internalType": "address",
          "name": "seller",
          "type": "address"
        },
        {
          "indexed": true,
          "internalType": "uint256",
          "name": "id",
          "type": "uint256"
        },
        {
          "indexed": false,
          "internalType": "uint256",
          "name": "price",
          "type": "uint256"
        },
        {
          "indexed": false,
          "internalType": "uint256",
          "name": "timestamp",
          "type": "uint256"
        }
      ],
      "name": "itemList",
      "type": "event"
    },
    {
      "anonymous": false,
      "inputs": [
        {
          "indexed": true,
          "internalType": "address",
          "name": "seller",
          "type": "address"
        },
        {
          "indexed": true,
          "internalType": "address",
          "name": "buyer",
          "type": "address"
        },
        {
          "indexed": true,
          "internalType": "uint256",
          "name": "id",
          "type": "uint256"
        },
        {
          "indexed": false,
          "internalType": "uint256",
          "name": "price",
          "type": "uint256"
        },
        {
          "indexed": false,
          "internalType": "uint256",
          "name": "timestamp",
          "type": "uint256"
        }
      ],
      "name": "itemSell",
      "type": "event"
    },
    {
      "inputs": [
        {
          "internalType": "uint256",
          "name": "_id",
          "type": "uint256"
        }
      ],
      "name": "buyItem",
      "outputs": [],
      "stateMutability": "payable",
      "type": "function"
    },
    {
      "inputs": [
        {
          "internalType": "uint256",
          "name": "_id",
          "type": "uint256"
        }
      ],
      "name": "delistItem",
      "outputs": [],
      "stateMutability": "nonpayable",
      "type": "function"
    },
    {
      "inputs": [
        {
          "internalType": "uint256",
          "name": "_id",
          "type": "uint256"
        }
      ],
      "name": "getItem",
      "outputs": [
        {
          "components": [
            {
              "internalType": "uint256",
              "name": "idNft",
              "type": "uint256"
            },
            {
              "internalType": "string",
              "name": "url",
              "type": "string"
            },
            {
              "internalType": "uint256",
              "name": "price",
              "type": "uint256"
            },
            {
              "internalType": "string",
              "name": "description",
              "type": "string"
            },
            {
              "internalType": "uint256",
              "name": "startSale",
              "type": "uint256"
            },
            {
              "internalType": "uint256",
              "name": "endSale",
              "type": "uint256"
            },
            {
              "internalType": "address",
              "name": "seller",
              "type": "address"
            }
          ],
          "internalType": "struct Market.Item",
          "name": "",
          "type": "tuple"
        }
      ],
      "stateMutability": "view",
      "type": "function"
    },
    {
      "inputs": [],
      "name": "getList",
      "outputs": [
        {
          "components": [
            {
              "internalType": "uint256",
              "name": "idNft",
              "type": "uint256"
            },
            {
              "internalType": "string",
              "name": "url",
              "type": "string"
            },
            {
              "internalType": "uint256",
              "name": "price",
              "type": "uint256"
            },
            {
              "internalType": "string",
              "name": "description",
              "type": "string"
            },
            {
              "internalType": "uint256",
              "name": "startSale",
              "type": "uint256"
            },
            {
              "internalType": "uint256",
              "name": "endSale",
              "type": "uint256"
            },
            {
              "internalType": "address",
              "name": "seller",
              "type": "address"
            }
          ],
          "internalType": "struct Market.Item[]",
          "name": "",
          "type": "tuple[]"
        }
      ],
      "stateMutability": "view",
      "type": "function"
    },
    {
      "inputs": [],
      "name": "getVolume",
      "outputs": [
        {
          "internalType": "uint256",
          "name": "",
          "type": "uint256"
        }
      ],
      "stateMutability": "view",
      "type": "function"
    },
    {
      "inputs": [
        {
          "internalType": "uint256",
          "name": "",
          "type": "uint256"
        }
      ],
      "name": "items",
      "outputs": [
        {
          "internalType": "uint256",
          "name": "idNft",
          "type": "uint256"
        },
        {
          "internalType": "string",
          "name": "url",
          "type": "string"
        },
        {
          "internalType": "uint256",
          "name": "price",
          "type": "uint256"
        },
        {
          "internalType": "string",
          "name": "description",
          "type": "string"
        },
        {
          "internalType": "uint256",
          "name": "startSale",
          "type": "uint256"
        },
        {
          "internalType": "uint256",
          "name": "endSale",
          "type": "uint256"
        },
        {
          "internalType": "address",
          "name": "seller",
          "type": "address"
        }
      ],
      "stateMutability": "view",
      "type": "function"
    },
    {
      "inputs": [
        {
          "internalType": "uint256",
          "name": "_id",
          "type": "uint256"
        },
        {
          "internalType": "uint256",
          "name": "_price",
          "type": "uint256"
        },
        {
          "internalType": "string",
          "name": "_description",
          "type": "string"
        },
        {
          "internalType": "uint256",
          "name": "_endSale",
          "type": "uint256"
        }
      ],
      "name": "listItem",
      "outputs": [],
      "stateMutability": "nonpayable",
      "type": "function"
    },
    {
      "inputs": [],
      "name": "nft",
      "outputs": [
        {
          "internalType": "contract ERC721",
          "name": "",
          "type": "address"
        }
      ],
      "stateMutability": "view",
      "type": "function"
    },
    {
      "inputs": [
        {
          "internalType": "address payable",
          "name": "_to",
          "type": "address"
        }
      ],
      "name": "withdraw",
      "outputs": [],
      "stateMutability": "nonpayable",
      "type": "function"
    }
  ],
  "bytecode": "0x6080604052600a60025560006003553480156200001b57600080fd5b506040516200267f3803806200267f8339818101604052810190620000419190620000e0565b806000806101000a81548173ffffffffffffffffffffffffffffffffffffffff021916908373ffffffffffffffffffffffffffffffffffffffff16021790555033600160006101000a81548173ffffffffffffffffffffffffffffffffffffffff021916908373ffffffffffffffffffffffffffffffffffffffff1602179055505062000179565b600081519050620000da816200015f565b92915050565b600060208284031215620000f957620000f86200015a565b5b60006200010984828501620000c9565b91505092915050565b60006200011f826200013a565b9050919050565b6000620001338262000112565b9050919050565b600073ffffffffffffffffffffffffffffffffffffffff82169050919050565b600080fd5b6200016a8162000126565b81146200017657600080fd5b50565b6124f680620001896000396000f3fe6080604052600436106100865760003560e01c8063942b765a11610059578063942b765a14610145578063ae71343614610170578063bfb231d214610199578063c67bbc24146101dc578063e7fb74c71461020757610086565b8063100616311461008b5780633129e773146100b457806347ccca02146100f157806351cff8d91461011c575b600080fd5b34801561009757600080fd5b506100b260048036038101906100ad919061194a565b610223565b005b3480156100c057600080fd5b506100db60048036038101906100d6919061194a565b6104b5565b6040516100e89190611e49565b60405180910390f35b3480156100fd57600080fd5b506101066106e5565b6040516101139190611d8e565b60405180910390f35b34801561012857600080fd5b50610143600480360381019061013e91906118d4565b610709565b005b34801561015157600080fd5b5061015a6107e3565b6040516101679190611d6c565b60405180910390f35b34801561017c57600080fd5b5061019760048036038101906101929190611977565b6109e4565b005b3480156101a557600080fd5b506101c060048036038101906101bb919061194a565b610db9565b6040516101d39796959493929190611e86565b60405180910390f35b3480156101e857600080fd5b506101f1610f3b565b6040516101fe9190611e6b565b60405180910390f35b610221600480360381019061021c919061194a565b610f45565b005b600061022e826112f4565b90506065811415610274576040517f08c379a000000000000000000000000000000000000000000000000000000000815260040161026b90611da9565b60405180910390fd5b600481815481106102885761028761232b565b5b906000526020600020906007020160060160009054906101000a900473ffffffffffffffffffffffffffffffffffffffff1673ffffffffffffffffffffffffffffffffffffffff163373ffffffffffffffffffffffffffffffffffffffff1614806103405750600160009054906101000a900473ffffffffffffffffffffffffffffffffffffffff1673ffffffffffffffffffffffffffffffffffffffff163373ffffffffffffffffffffffffffffffffffffffff16145b61037f576040517f08c379a000000000000000000000000000000000000000000000000000000000815260040161037690611e09565b60405180910390fd5b6000600482815481106103955761039461232b565b5b906000526020600020906007020160060160009054906101000a900473ffffffffffffffffffffffffffffffffffffffff16905060008054906101000a900473ffffffffffffffffffffffffffffffffffffffff1673ffffffffffffffffffffffffffffffffffffffff1663bcf0dd8e3083866040518463ffffffff1660e01b815260040161042693929190611d35565b600060405180830381600087803b15801561044057600080fd5b505af1158015610454573d6000803e3d6000fd5b505050506104618261135d565b823373ffffffffffffffffffffffffffffffffffffffff167fabc3171d7d5979416cf58b1b720079ed4fff828e48eb43adc1f5ddeb24c593ef426040516104a89190611e6b565b60405180910390a3505050565b6104bd6115c5565b60006104c8836112f4565b9050606581141561050e576040517f08c379a000000000000000000000000000000000000000000000000000000000815260040161050590611da9565b60405180910390fd5b600481815481106105225761052161232b565b5b90600052602060002090600702016040518060e001604052908160008201548152602001600182018054610555906121c3565b80601f0160208091040260200160405190810160405280929190818152602001828054610581906121c3565b80156105ce5780601f106105a3576101008083540402835291602001916105ce565b820191906000526020600020905b8154815290600101906020018083116105b157829003601f168201915b50505050508152602001600282015481526020016003820180546105f1906121c3565b80601f016020809104026020016040519081016040528092919081815260200182805461061d906121c3565b801561066a5780601f1061063f5761010080835404028352916020019161066a565b820191906000526020600020905b81548152906001019060200180831161064d57829003601f168201915b5050505050815260200160048201548152602001600582015481526020016006820160009054906101000a900473ffffffffffffffffffffffffffffffffffffffff1673ffffffffffffffffffffffffffffffffffffffff1673ffffffffffffffffffffffffffffffffffffffff1681525050915050919050565b60008054906101000a900473ffffffffffffffffffffffffffffffffffffffff1681565b3373ffffffffffffffffffffffffffffffffffffffff16600160009054906101000a900473ffffffffffffffffffffffffffffffffffffffff1673ffffffffffffffffffffffffffffffffffffffff1614610799576040517f08c379a000000000000000000000000000000000000000000000000000000000815260040161079090611dc9565b60405180910390fd5b8073ffffffffffffffffffffffffffffffffffffffff166108fc479081150290604051600060405180830381858888f193505050501580156107df573d6000803e3d6000fd5b5050565b60606004805480602002602001604051908101604052809291908181526020016000905b828210156109db57838290600052602060002090600702016040518060e001604052908160008201548152602001600182018054610844906121c3565b80601f0160208091040260200160405190810160405280929190818152602001828054610870906121c3565b80156108bd5780601f10610892576101008083540402835291602001916108bd565b820191906000526020600020905b8154815290600101906020018083116108a057829003601f168201915b50505050508152602001600282015481526020016003820180546108e0906121c3565b80601f016020809104026020016040519081016040528092919081815260200182805461090c906121c3565b80156109595780601f1061092e57610100808354040283529160200191610959565b820191906000526020600020905b81548152906001019060200180831161093c57829003601f168201915b5050505050815260200160048201548152602001600582015481526020016006820160009054906101000a900473ffffffffffffffffffffffffffffffffffffffff1673ffffffffffffffffffffffffffffffffffffffff1673ffffffffffffffffffffffffffffffffffffffff168152505081526020019060010190610807565b50505050905090565b3073ffffffffffffffffffffffffffffffffffffffff1660008054906101000a900473ffffffffffffffffffffffffffffffffffffffff1673ffffffffffffffffffffffffffffffffffffffff1663081812fc866040518263ffffffff1660e01b8152600401610a549190611e6b565b60206040518083038186803b158015610a6c57600080fd5b505afa158015610a80573d6000803e3d6000fd5b505050506040513d601f19601f82011682018060405250810190610aa491906118a7565b73ffffffffffffffffffffffffffffffffffffffff1614610afa576040517f08c379a0000000000000000000000000000000000000000000000000000000008152600401610af190611e29565b60405180910390fd5b60008060009054906101000a900473ffffffffffffffffffffffffffffffffffffffff1673ffffffffffffffffffffffffffffffffffffffff1663c87b56dd866040518263ffffffff1660e01b8152600401610b569190611e6b565b60006040518083038186803b158015610b6e57600080fd5b505afa158015610b82573d6000803e3d6000fd5b505050506040513d6000823e3d601f19601f82011682018060405250810190610bab9190611901565b905060006040518060e001604052808781526020018381526020018681526020018581526020014281526020018481526020013373ffffffffffffffffffffffffffffffffffffffff1681525090506004819080600181540180825580915050600190039060005260206000209060070201600090919091909150600082015181600001556020820151816001019080519060200190610c4c929190611618565b50604082015181600201556060820151816003019080519060200190610c73929190611618565b506080820151816004015560a0820151816005015560c08201518160060160006101000a81548173ffffffffffffffffffffffffffffffffffffffff021916908373ffffffffffffffffffffffffffffffffffffffff160217905550505060008054906101000a900473ffffffffffffffffffffffffffffffffffffffff1673ffffffffffffffffffffffffffffffffffffffff1663bcf0dd8e3330896040518463ffffffff1660e01b8152600401610d2e93929190611d35565b600060405180830381600087803b158015610d4857600080fd5b505af1158015610d5c573d6000803e3d6000fd5b50505050853373ffffffffffffffffffffffffffffffffffffffff167fe9d17b30ec72b33f37789fec6abc80a3547e5410ac2130c076d509bdce0a22248742604051610da9929190611f03565b60405180910390a3505050505050565b60048181548110610dc957600080fd5b9060005260206000209060070201600091509050806000015490806001018054610df2906121c3565b80601f0160208091040260200160405190810160405280929190818152602001828054610e1e906121c3565b8015610e6b5780601f10610e4057610100808354040283529160200191610e6b565b820191906000526020600020905b815481529060010190602001808311610e4e57829003601f168201915b505050505090806002015490806003018054610e86906121c3565b80601f0160208091040260200160405190810160405280929190818152602001828054610eb2906121c3565b8015610eff5780601f10610ed457610100808354040283529160200191610eff565b820191906000526020600020905b815481529060010190602001808311610ee257829003601f168201915b5050505050908060040154908060050154908060060160009054906101000a900473ffffffffffffffffffffffffffffffffffffffff16905087565b6000600354905090565b6000610f50826112f4565b90506065811415610f96576040517f08c379a0000000000000000000000000000000000000000000000000000000008152600401610f8d90611da9565b60405180910390fd5b60048181548110610faa57610fa961232b565b5b906000526020600020906007020160060160009054906101000a900473ffffffffffffffffffffffffffffffffffffffff1673ffffffffffffffffffffffffffffffffffffffff163373ffffffffffffffffffffffffffffffffffffffff16141561104a576040517f08c379a000000000000000000000000000000000000000000000000000000000815260040161104190611da9565b60405180910390fd5b6004818154811061105e5761105d61232b565b5b90600052602060002090600702016002015434146110b1576040517f08c379a00000000000000000000000000000000000000000000000000000000081526004016110a890611de9565b60405180910390fd5b34600360008282546110c39190611fe8565b925050819055506000600482815481106110e0576110df61232b565b5b906000526020600020906007020160060160009054906101000a900473ffffffffffffffffffffffffffffffffffffffff16905060006004838154811061112a5761112961232b565b5b90600052602060002090600702016002015490506000600484815481106111545761115361232b565b5b906000526020600020906007020160060160009054906101000a900473ffffffffffffffffffffffffffffffffffffffff16905060006064605a34611199919061206f565b6111a3919061203e565b90508173ffffffffffffffffffffffffffffffffffffffff166108fc829081150290604051600060405180830381858888f193505050501580156111eb573d6000803e3d6000fd5b5060008054906101000a900473ffffffffffffffffffffffffffffffffffffffff1673ffffffffffffffffffffffffffffffffffffffff1663bcf0dd8e3033896040518463ffffffff1660e01b815260040161124993929190611d35565b600060405180830381600087803b15801561126357600080fd5b505af1158015611277573d6000803e3d6000fd5b505050506112848561135d565b853373ffffffffffffffffffffffffffffffffffffffff168573ffffffffffffffffffffffffffffffffffffffff167f2dc2cd3211edad39e14f38c605060b74be0b028b8769142e5c03bbbecbec9bb286426040516112e4929190611f03565b60405180910390a4505050505050565b600080600090505b60048054905081101561135257826004828154811061131e5761131d61232b565b5b906000526020600020906007020160000154141561133f5780915050611358565b808061134a90612226565b9150506112fc565b50606590505b919050565b60008190506000600160048054905061137691906120c9565b905080821415611417576004805480611392576113916122fc565b5b60019003818190600052602060002090600702016000808201600090556001820160006113bf919061169e565b60028201600090556003820160006113d7919061169e565b600482016000905560058201600090556006820160006101000a81549073ffffffffffffffffffffffffffffffffffffffff0219169055505090556115c0565b6004818154811061142b5761142a61232b565b5b90600052602060002090600702016004838154811061144d5761144c61232b565b5b9060005260206000209060070201600082015481600001556001820181600101908054611479906121c3565b6114849291906116de565b506002820154816002015560038201816003019080546114a3906121c3565b6114ae9291906116de565b5060048201548160040155600582015481600501556006820160009054906101000a900473ffffffffffffffffffffffffffffffffffffffff168160060160006101000a81548173ffffffffffffffffffffffffffffffffffffffff021916908373ffffffffffffffffffffffffffffffffffffffff160217905550905050600480548061153f5761153e6122fc565b5b600190038181906000526020600020906007020160008082016000905560018201600061156c919061169e565b6002820160009055600382016000611584919061169e565b600482016000905560058201600090556006820160006101000a81549073ffffffffffffffffffffffffffffffffffffffff0219169055505090555b505050565b6040518060e00160405280600081526020016060815260200160008152602001606081526020016000815260200160008152602001600073ffffffffffffffffffffffffffffffffffffffff1681525090565b828054611624906121c3565b90600052602060002090601f016020900481019282611646576000855561168d565b82601f1061165f57805160ff191683800117855561168d565b8280016001018555821561168d579182015b8281111561168c578251825591602001919060010190611671565b5b50905061169a919061176b565b5090565b5080546116aa906121c3565b6000825580601f106116bc57506116db565b601f0160209004906000526020600020908101906116da919061176b565b5b50565b8280546116ea906121c3565b90600052602060002090601f01602090048101928261170c576000855561175a565b82601f1061171d578054855561175a565b8280016001018555821561175a57600052602060002091601f016020900482015b8281111561175957825482559160010191906001019061173e565b5b509050611767919061176b565b5090565b5b8082111561178457600081600090555060010161176c565b5090565b600061179b61179684611f51565b611f2c565b9050828152602081018484840111156117b7576117b661238e565b5b6117c2848285612181565b509392505050565b60006117dd6117d884611f51565b611f2c565b9050828152602081018484840111156117f9576117f861238e565b5b611804848285612190565b509392505050565b60008151905061181b8161247b565b92915050565b60008135905061183081612492565b92915050565b600082601f83011261184b5761184a612389565b5b813561185b848260208601611788565b91505092915050565b600082601f83011261187957611878612389565b5b81516118898482602086016117ca565b91505092915050565b6000813590506118a1816124a9565b92915050565b6000602082840312156118bd576118bc612398565b5b60006118cb8482850161180c565b91505092915050565b6000602082840312156118ea576118e9612398565b5b60006118f884828501611821565b91505092915050565b60006020828403121561191757611916612398565b5b600082015167ffffffffffffffff81111561193557611934612393565b5b61194184828501611864565b91505092915050565b6000602082840312156119605761195f612398565b5b600061196e84828501611892565b91505092915050565b6000806000806080858703121561199157611990612398565b5b600061199f87828801611892565b94505060206119b087828801611892565b935050604085013567ffffffffffffffff8111156119d1576119d0612393565b5b6119dd87828801611836565b92505060606119ee87828801611892565b91505092959194509250565b6000611a068383611bd1565b905092915050565b611a17816120fd565b82525050565b611a26816120fd565b82525050565b6000611a3782611f92565b611a418185611fb5565b935083602082028501611a5385611f82565b8060005b85811015611a8f5784840389528151611a7085826119fa565b9450611a7b83611fa8565b925060208a01995050600181019050611a57565b50829750879550505050505092915050565b611aaa8161214b565b82525050565b6000611abb82611f9d565b611ac58185611fc6565b9350611ad5818560208601612190565b611ade8161239d565b840191505092915050565b6000611af482611f9d565b611afe8185611fd7565b9350611b0e818560208601612190565b611b178161239d565b840191505092915050565b6000611b2f600583611fd7565b9150611b3a826123ae565b602082019050919050565b6000611b52601583611fd7565b9150611b5d826123d7565b602082019050919050565b6000611b75600c83611fd7565b9150611b8082612400565b602082019050919050565b6000611b98601183611fd7565b9150611ba382612429565b602082019050919050565b6000611bbb600c83611fd7565b9150611bc682612452565b602082019050919050565b600060e083016000830151611be96000860182611d17565b5060208301518482036020860152611c018282611ab0565b9150506040830151611c166040860182611d17565b5060608301518482036060860152611c2e8282611ab0565b9150506080830151611c436080860182611d17565b5060a0830151611c5660a0860182611d17565b5060c0830151611c6960c0860182611a0e565b508091505092915050565b600060e083016000830151611c8c6000860182611d17565b5060208301518482036020860152611ca48282611ab0565b9150506040830151611cb96040860182611d17565b5060608301518482036060860152611cd18282611ab0565b9150506080830151611ce66080860182611d17565b5060a0830151611cf960a0860182611d17565b5060c0830151611d0c60c0860182611a0e565b508091505092915050565b611d2081612141565b82525050565b611d2f81612141565b82525050565b6000606082019050611d4a6000830186611a1d565b611d576020830185611a1d565b611d646040830184611d26565b949350505050565b60006020820190508181036000830152611d868184611a2c565b905092915050565b6000602082019050611da36000830184611aa1565b92915050565b60006020820190508181036000830152611dc281611b22565b9050919050565b60006020820190508181036000830152611de281611b45565b9050919050565b60006020820190508181036000830152611e0281611b68565b9050919050565b60006020820190508181036000830152611e2281611b8b565b9050919050565b60006020820190508181036000830152611e4281611bae565b9050919050565b60006020820190508181036000830152611e638184611c74565b905092915050565b6000602082019050611e806000830184611d26565b92915050565b600060e082019050611e9b600083018a611d26565b8181036020830152611ead8189611ae9565b9050611ebc6040830188611d26565b8181036060830152611ece8187611ae9565b9050611edd6080830186611d26565b611eea60a0830185611d26565b611ef760c0830184611a1d565b98975050505050505050565b6000604082019050611f186000830185611d26565b611f256020830184611d26565b9392505050565b6000611f36611f47565b9050611f4282826121f5565b919050565b6000604051905090565b600067ffffffffffffffff821115611f6c57611f6b61235a565b5b611f758261239d565b9050602081019050919050565b6000819050602082019050919050565b600081519050919050565b600081519050919050565b6000602082019050919050565b600082825260208201905092915050565b600082825260208201905092915050565b600082825260208201905092915050565b6000611ff382612141565b9150611ffe83612141565b9250827fffffffffffffffffffffffffffffffffffffffffffffffffffffffffffffffff038211156120335761203261226f565b5b828201905092915050565b600061204982612141565b915061205483612141565b9250826120645761206361229e565b5b828204905092915050565b600061207a82612141565b915061208583612141565b9250817fffffffffffffffffffffffffffffffffffffffffffffffffffffffffffffffff04831182151516156120be576120bd61226f565b5b828202905092915050565b60006120d482612141565b91506120df83612141565b9250828210156120f2576120f161226f565b5b828203905092915050565b600061210882612121565b9050919050565b600061211a82612121565b9050919050565b600073ffffffffffffffffffffffffffffffffffffffff82169050919050565b6000819050919050565b60006121568261215d565b9050919050565b60006121688261216f565b9050919050565b600061217a82612121565b9050919050565b82818337600083830152505050565b60005b838110156121ae578082015181840152602081019050612193565b838111156121bd576000848401525b50505050565b600060028204905060018216806121db57607f821691505b602082108114156121ef576121ee6122cd565b5b50919050565b6121fe8261239d565b810181811067ffffffffffffffff8211171561221d5761221c61235a565b5b80604052505050565b600061223182612141565b91507fffffffffffffffffffffffffffffffffffffffffffffffffffffffffffffffff8214156122645761226361226f565b5b600182019050919050565b7f4e487b7100000000000000000000000000000000000000000000000000000000600052601160045260246000fd5b7f4e487b7100000000000000000000000000000000000000000000000000000000600052601260045260246000fd5b7f4e487b7100000000000000000000000000000000000000000000000000000000600052602260045260246000fd5b7f4e487b7100000000000000000000000000000000000000000000000000000000600052603160045260246000fd5b7f4e487b7100000000000000000000000000000000000000000000000000000000600052603260045260246000fd5b7f4e487b7100000000000000000000000000000000000000000000000000000000600052604160045260246000fd5b600080fd5b600080fd5b600080fd5b600080fd5b6000601f19601f8301169050919050565b7f6572726f72000000000000000000000000000000000000000000000000000000600082015250565b7f596f7520617265206e6f7420616e206f776e6572210000000000000000000000600082015250565b7f77726f6e6720616d6f756e740000000000000000000000000000000000000000600082015250565b7f4e6f7420656e6f75676820726967687473000000000000000000000000000000600082015250565b7f6e6f7420617070726f7665640000000000000000000000000000000000000000600082015250565b612484816120fd565b811461248f57600080fd5b50565b61249b8161210f565b81146124a657600080fd5b50565b6124b281612141565b81146124bd57600080fd5b5056fea2646970667358221220e2ee1bc9f75b801ba9ca546f399e02c2c04cf54d5e54b7550c056d399202107864736f6c63430008070033",
  "linkReferences": {},
  "deployedLinkReferences": {}
}