{
  "_format": "hh-sol-artifact-1",
  "contractName": "Crowdsale",
  "sourceName": "contracts/CrowdSale.sol",
  "abi": [
    {
      "inputs": [
        {
          "internalType": "uint256",
          "name": "_rate",
          "type": "uint256"
        },
        {
          "internalType": "address",
          "name": "_wallet",
          "type": "address"
        },
        {
          "internalType": "contract NToken",
          "name": "_token",
          "type": "address"
        }
      ],
      "stateMutability": "nonpayable",
      "type": "constructor"
    },
    {
      "anonymous": false,
      "inputs": [
        {
          "indexed": true,
          "internalType": "address",
          "name": "purchaser",
          "type": "address"
        },
        {
          "indexed": true,
          "internalType": "address",
          "name": "beneficiary",
          "type": "address"
        },
        {
          "indexed": false,
          "internalType": "uint256",
          "name": "value",
          "type": "uint256"
        },
        {
          "indexed": false,
          "internalType": "uint256",
          "name": "amount",
          "type": "uint256"
        }
      ],
      "name": "TokenPurchase",
      "type": "event"
    },
    {
      "inputs": [
        {
          "internalType": "address",
          "name": "_beneficiary",
          "type": "address"
        }
      ],
      "name": "buyTokens",
      "outputs": [],
      "stateMutability": "payable",
      "type": "function"
    },
    {
      "inputs": [],
      "name": "rate",
      "outputs": [
        {
          "internalType": "uint256",
          "name": "",
          "type": "uint256"
        }
      ],
      "stateMutability": "view",
      "type": "function"
    },
    {
      "inputs": [],
      "name": "receiveFunds",
      "outputs": [],
      "stateMutability": "payable",
      "type": "function"
    },
    {
      "inputs": [],
      "name": "token",
      "outputs": [
        {
          "internalType": "contract NToken",
          "name": "",
          "type": "address"
        }
      ],
      "stateMutability": "view",
      "type": "function"
    },
    {
      "inputs": [],
      "name": "wallet",
      "outputs": [
        {
          "internalType": "address",
          "name": "",
          "type": "address"
        }
      ],
      "stateMutability": "view",
      "type": "function"
    },
    {
      "inputs": [],
      "name": "weiRaised",
      "outputs": [
        {
          "internalType": "uint256",
          "name": "",
          "type": "uint256"
        }
      ],
      "stateMutability": "view",
      "type": "function"
    },
    {
      "stateMutability": "payable",
      "type": "receive"
    }
  ],
  "bytecode": "0x60806040523480156200001157600080fd5b5060405162000aa238038062000aa2833981810160405281019062000037919062000191565b600083116200004557600080fd5b600073ffffffffffffffffffffffffffffffffffffffff168273ffffffffffffffffffffffffffffffffffffffff1614156200008057600080fd5b600073ffffffffffffffffffffffffffffffffffffffff168173ffffffffffffffffffffffffffffffffffffffff161415620000bb57600080fd5b8260028190555081600160006101000a81548173ffffffffffffffffffffffffffffffffffffffff021916908373ffffffffffffffffffffffffffffffffffffffff160217905550806000806101000a81548173ffffffffffffffffffffffffffffffffffffffff021916908373ffffffffffffffffffffffffffffffffffffffff16021790555050505062000292565b6000815190506200015d8162000244565b92915050565b60008151905062000174816200025e565b92915050565b6000815190506200018b8162000278565b92915050565b600080600060608486031215620001ad57620001ac6200023f565b5b6000620001bd868287016200017a565b9350506020620001d0868287016200014c565b9250506040620001e38682870162000163565b9150509250925092565b6000620001fa8262000215565b9050919050565b60006200020e82620001ed565b9050919050565b600073ffffffffffffffffffffffffffffffffffffffff82169050919050565b6000819050919050565b600080fd5b6200024f81620001ed565b81146200025b57600080fd5b50565b620002698162000201565b81146200027557600080fd5b50565b620002838162000235565b81146200028f57600080fd5b50565b61080080620002a26000396000f3fe6080604052600436106100585760003560e01c80625c33e11461006d5780632c4e722e146100775780634042b66f146100a2578063521eb273146100cd578063ec8ac4d8146100f8578063fc0c546a1461011457610068565b36610068576100663361013f565b005b600080fd5b6100756101f4565b005b34801561008357600080fd5b5061008c6101ff565b6040516100999190610567565b60405180910390f35b3480156100ae57600080fd5b506100b7610205565b6040516100c49190610567565b60405180910390f35b3480156100d957600080fd5b506100e261020b565b6040516100ef9190610508565b60405180910390f35b610112600480360381019061010d9190610481565b61013f565b005b34801561012057600080fd5b50610129610231565b604051610136919061054c565b60405180910390f35b600034905061014e8282610255565b6000610159826102a1565b9050610170826003546102bf90919063ffffffff16565b60038190555061018083826102eb565b8273ffffffffffffffffffffffffffffffffffffffff163373ffffffffffffffffffffffffffffffffffffffff167f623b3804fa71d67900d064613da8f94b9617215ee90799290593e1745087ad1884846040516101df929190610582565b60405180910390a36101ef61039d565b505050565b6101fd3361013f565b565b60025481565b60035481565b600160009054906101000a900473ffffffffffffffffffffffffffffffffffffffff1681565b60008054906101000a900473ffffffffffffffffffffffffffffffffffffffff1681565b600073ffffffffffffffffffffffffffffffffffffffff168273ffffffffffffffffffffffffffffffffffffffff16141561028f57600080fd5b600081141561029d57600080fd5b5050565b60006102b86002548361040e90919063ffffffff16565b9050919050565b60008082846102ce91906105ab565b9050838110156102e1576102e061070a565b5b8091505092915050565b60008054906101000a900473ffffffffffffffffffffffffffffffffffffffff1673ffffffffffffffffffffffffffffffffffffffff1663a9059cbb83836040518363ffffffff1660e01b8152600401610346929190610523565b602060405180830381600087803b15801561036057600080fd5b505af1158015610374573d6000803e3d6000fd5b505050506040513d601f19601f8201168201806040525081019061039891906104ae565b505050565b6000600160009054906101000a900473ffffffffffffffffffffffffffffffffffffffff1690508073ffffffffffffffffffffffffffffffffffffffff166108fc349081150290604051600060405180830381858888f1935050505015801561040a573d6000803e3d6000fd5b5050565b6000808314156104215760009050610451565b6000828461042f9190610632565b905082848261043e9190610601565b1461044c5761044b61070a565b5b809150505b92915050565b6000813590506104668161079c565b92915050565b60008151905061047b816107b3565b92915050565b60006020828403121561049757610496610797565b5b60006104a584828501610457565b91505092915050565b6000602082840312156104c4576104c3610797565b5b60006104d28482850161046c565b91505092915050565b6104e48161068c565b82525050565b6104f3816106d4565b82525050565b610502816106ca565b82525050565b600060208201905061051d60008301846104db565b92915050565b600060408201905061053860008301856104db565b61054560208301846104f9565b9392505050565b600060208201905061056160008301846104ea565b92915050565b600060208201905061057c60008301846104f9565b92915050565b600060408201905061059760008301856104f9565b6105a460208301846104f9565b9392505050565b60006105b6826106ca565b91506105c1836106ca565b9250827fffffffffffffffffffffffffffffffffffffffffffffffffffffffffffffffff038211156105f6576105f5610739565b5b828201905092915050565b600061060c826106ca565b9150610617836106ca565b92508261062757610626610768565b5b828204905092915050565b600061063d826106ca565b9150610648836106ca565b9250817fffffffffffffffffffffffffffffffffffffffffffffffffffffffffffffffff048311821515161561068157610680610739565b5b828202905092915050565b6000610697826106aa565b9050919050565b60008115159050919050565b600073ffffffffffffffffffffffffffffffffffffffff82169050919050565b6000819050919050565b60006106df826106e6565b9050919050565b60006106f1826106f8565b9050919050565b6000610703826106aa565b9050919050565b7f4e487b7100000000000000000000000000000000000000000000000000000000600052600160045260246000fd5b7f4e487b7100000000000000000000000000000000000000000000000000000000600052601160045260246000fd5b7f4e487b7100000000000000000000000000000000000000000000000000000000600052601260045260246000fd5b600080fd5b6107a58161068c565b81146107b057600080fd5b50565b6107bc8161069e565b81146107c757600080fd5b5056fea2646970667358221220b5f802ad7f9ba86f777b2a6f266fac1bc88114eb0569f0ba4ca0e6e6eafcdc2d64736f6c63430008070033",
  "linkReferences": {},
  "deployedLinkReferences": {}
}