{
  "_format": "hh-sol-artifact-1",
  "contractName": "ERC721",
  "sourceName": "contracts/nft/ERC721.sol",
  "abi": [
    {
      "inputs": [
        {
          "internalType": "string",
          "name": "name_",
          "type": "string"
        },
        {
          "internalType": "string",
          "name": "symbol_",
          "type": "string"
        },
        {
          "internalType": "string",
          "name": "baseURI_",
          "type": "string"
        },
        {
          "internalType": "address",
          "name": "wallet_",
          "type": "address"
        }
      ],
      "stateMutability": "nonpayable",
      "type": "constructor"
    },
    {
      "anonymous": false,
      "inputs": [
        {
          "indexed": true,
          "internalType": "address",
          "name": "owner",
          "type": "address"
        },
        {
          "indexed": true,
          "internalType": "address",
          "name": "approved",
          "type": "address"
        },
        {
          "indexed": true,
          "internalType": "uint256",
          "name": "tokenId",
          "type": "uint256"
        }
      ],
      "name": "Approval",
      "type": "event"
    },
    {
      "anonymous": false,
      "inputs": [
        {
          "indexed": true,
          "internalType": "address",
          "name": "owner",
          "type": "address"
        },
        {
          "indexed": true,
          "internalType": "address",
          "name": "operator",
          "type": "address"
        },
        {
          "indexed": false,
          "internalType": "bool",
          "name": "approved",
          "type": "bool"
        }
      ],
      "name": "ApprovalForAll",
      "type": "event"
    },
    {
      "anonymous": false,
      "inputs": [
        {
          "indexed": true,
          "internalType": "address",
          "name": "previousOwner",
          "type": "address"
        },
        {
          "indexed": true,
          "internalType": "address",
          "name": "newOwner",
          "type": "address"
        }
      ],
      "name": "OwnershipTransferred",
      "type": "event"
    },
    {
      "anonymous": false,
      "inputs": [
        {
          "indexed": true,
          "internalType": "address",
          "name": "from",
          "type": "address"
        },
        {
          "indexed": true,
          "internalType": "address",
          "name": "to",
          "type": "address"
        },
        {
          "indexed": true,
          "internalType": "uint256",
          "name": "tokenId",
          "type": "uint256"
        }
      ],
      "name": "Transfer",
      "type": "event"
    },
    {
      "inputs": [],
      "name": "CANNOT_TRANSFER_TO_ZERO_ADDRESS",
      "outputs": [
        {
          "internalType": "string",
          "name": "",
          "type": "string"
        }
      ],
      "stateMutability": "view",
      "type": "function"
    },
    {
      "inputs": [],
      "name": "NOT_CURRENT_OWNER",
      "outputs": [
        {
          "internalType": "string",
          "name": "",
          "type": "string"
        }
      ],
      "stateMutability": "view",
      "type": "function"
    },
    {
      "inputs": [
        {
          "internalType": "address",
          "name": "market",
          "type": "address"
        }
      ],
      "name": "addApprovedMarket",
      "outputs": [],
      "stateMutability": "nonpayable",
      "type": "function"
    },
    {
      "inputs": [
        {
          "internalType": "address",
          "name": "to",
          "type": "address"
        },
        {
          "internalType": "uint256",
          "name": "tokenId",
          "type": "uint256"
        }
      ],
      "name": "approve",
      "outputs": [],
      "stateMutability": "nonpayable",
      "type": "function"
    },
    {
      "inputs": [
        {
          "internalType": "address",
          "name": "owner",
          "type": "address"
        }
      ],
      "name": "balanceOf",
      "outputs": [
        {
          "internalType": "uint256",
          "name": "",
          "type": "uint256"
        }
      ],
      "stateMutability": "view",
      "type": "function"
    },
    {
      "inputs": [],
      "name": "baseURI",
      "outputs": [
        {
          "internalType": "string",
          "name": "",
          "type": "string"
        }
      ],
      "stateMutability": "view",
      "type": "function"
    },
    {
      "inputs": [],
      "name": "buyNFT",
      "outputs": [],
      "stateMutability": "payable",
      "type": "function"
    },
    {
      "inputs": [
        {
          "internalType": "uint256",
          "name": "tokenId",
          "type": "uint256"
        }
      ],
      "name": "getApproved",
      "outputs": [
        {
          "internalType": "address",
          "name": "",
          "type": "address"
        }
      ],
      "stateMutability": "view",
      "type": "function"
    },
    {
      "inputs": [
        {
          "internalType": "uint256",
          "name": "_tokenId",
          "type": "uint256"
        }
      ],
      "name": "getInfoToken",
      "outputs": [
        {
          "components": [
            {
              "internalType": "address",
              "name": "owner",
              "type": "address"
            },
            {
              "internalType": "address",
              "name": "approval",
              "type": "address"
            },
            {
              "internalType": "string",
              "name": "URI",
              "type": "string"
            }
          ],
          "internalType": "struct ERC721.Info",
          "name": "",
          "type": "tuple"
        }
      ],
      "stateMutability": "view",
      "type": "function"
    },
    {
      "inputs": [
        {
          "internalType": "address",
          "name": "owner",
          "type": "address"
        },
        {
          "internalType": "address",
          "name": "operator",
          "type": "address"
        }
      ],
      "name": "isApprovedForAll",
      "outputs": [
        {
          "internalType": "bool",
          "name": "",
          "type": "bool"
        }
      ],
      "stateMutability": "view",
      "type": "function"
    },
    {
      "inputs": [
        {
          "internalType": "address",
          "name": "from",
          "type": "address"
        },
        {
          "internalType": "address",
          "name": "to",
          "type": "address"
        },
        {
          "internalType": "uint256",
          "name": "tokenId",
          "type": "uint256"
        }
      ],
      "name": "marketTransfer",
      "outputs": [],
      "stateMutability": "nonpayable",
      "type": "function"
    },
    {
      "inputs": [],
      "name": "maxSupply",
      "outputs": [
        {
          "internalType": "uint256",
          "name": "",
          "type": "uint256"
        }
      ],
      "stateMutability": "view",
      "type": "function"
    },
    {
      "inputs": [],
      "name": "name",
      "outputs": [
        {
          "internalType": "string",
          "name": "",
          "type": "string"
        }
      ],
      "stateMutability": "view",
      "type": "function"
    },
    {
      "inputs": [],
      "name": "owner",
      "outputs": [
        {
          "internalType": "address",
          "name": "",
          "type": "address"
        }
      ],
      "stateMutability": "view",
      "type": "function"
    },
    {
      "inputs": [
        {
          "internalType": "uint256",
          "name": "tokenId",
          "type": "uint256"
        }
      ],
      "name": "ownerOf",
      "outputs": [
        {
          "internalType": "address",
          "name": "",
          "type": "address"
        }
      ],
      "stateMutability": "view",
      "type": "function"
    },
    {
      "inputs": [
        {
          "internalType": "address",
          "name": "to",
          "type": "address"
        }
      ],
      "name": "safeMint",
      "outputs": [],
      "stateMutability": "nonpayable",
      "type": "function"
    },
    {
      "inputs": [
        {
          "internalType": "address",
          "name": "from",
          "type": "address"
        },
        {
          "internalType": "address",
          "name": "to",
          "type": "address"
        },
        {
          "internalType": "uint256",
          "name": "tokenId",
          "type": "uint256"
        }
      ],
      "name": "safeTransferFrom",
      "outputs": [],
      "stateMutability": "nonpayable",
      "type": "function"
    },
    {
      "inputs": [
        {
          "internalType": "address",
          "name": "operator",
          "type": "address"
        },
        {
          "internalType": "bool",
          "name": "approved",
          "type": "bool"
        }
      ],
      "name": "setApprovalForAll",
      "outputs": [],
      "stateMutability": "nonpayable",
      "type": "function"
    },
    {
      "inputs": [
        {
          "internalType": "bytes4",
          "name": "interfaceId",
          "type": "bytes4"
        }
      ],
      "name": "supportsInterface",
      "outputs": [
        {
          "internalType": "bool",
          "name": "",
          "type": "bool"
        }
      ],
      "stateMutability": "view",
      "type": "function"
    },
    {
      "inputs": [],
      "name": "symbol",
      "outputs": [
        {
          "internalType": "string",
          "name": "",
          "type": "string"
        }
      ],
      "stateMutability": "view",
      "type": "function"
    },
    {
      "inputs": [
        {
          "internalType": "uint256",
          "name": "tokenId",
          "type": "uint256"
        }
      ],
      "name": "tokenURI",
      "outputs": [
        {
          "internalType": "string",
          "name": "",
          "type": "string"
        }
      ],
      "stateMutability": "view",
      "type": "function"
    },
    {
      "inputs": [
        {
          "internalType": "address",
          "name": "_owner",
          "type": "address"
        }
      ],
      "name": "tokensOwned",
      "outputs": [
        {
          "internalType": "uint256[]",
          "name": "",
          "type": "uint256[]"
        }
      ],
      "stateMutability": "view",
      "type": "function"
    },
    {
      "inputs": [],
      "name": "totalSupply",
      "outputs": [
        {
          "internalType": "uint256",
          "name": "",
          "type": "uint256"
        }
      ],
      "stateMutability": "view",
      "type": "function"
    },
    {
      "inputs": [
        {
          "internalType": "address",
          "name": "from",
          "type": "address"
        },
        {
          "internalType": "address",
          "name": "to",
          "type": "address"
        },
        {
          "internalType": "uint256",
          "name": "tokenId",
          "type": "uint256"
        }
      ],
      "name": "transferFrom",
      "outputs": [],
      "stateMutability": "nonpayable",
      "type": "function"
    },
    {
      "inputs": [
        {
          "internalType": "address",
          "name": "_newOwner",
          "type": "address"
        }
      ],
      "name": "transferOwnership",
      "outputs": [],
      "stateMutability": "nonpayable",
      "type": "function"
    }
  ],
  "bytecode": "0x608060405260006004553480156200001657600080fd5b5060405162003e1b38038062003e1b83398181016040528101906200003c91906200024b565b336000806101000a81548173ffffffffffffffffffffffffffffffffffffffff021916908373ffffffffffffffffffffffffffffffffffffffff16021790555083600190805190602001906200009492919062000112565b508260029080519060200190620000ad92919062000112565b508160039080519060200190620000c692919062000112565b5080600560006101000a81548173ffffffffffffffffffffffffffffffffffffffff021916908373ffffffffffffffffffffffffffffffffffffffff16021790555050505050620004c0565b8280546200012090620003cb565b90600052602060002090601f01602090048101928262000144576000855562000190565b82601f106200015f57805160ff191683800117855562000190565b8280016001018555821562000190579182015b828111156200018f57825182559160200191906001019062000172565b5b5090506200019f9190620001a3565b5090565b5b80821115620001be576000816000905550600101620001a4565b5090565b6000620001d9620001d3846200032b565b62000302565b905082815260208101848484011115620001f257600080fd5b620001ff84828562000395565b509392505050565b6000815190506200021881620004a6565b92915050565b600082601f8301126200023057600080fd5b815162000242848260208601620001c2565b91505092915050565b600080600080608085870312156200026257600080fd5b600085015167ffffffffffffffff8111156200027d57600080fd5b6200028b878288016200021e565b945050602085015167ffffffffffffffff811115620002a957600080fd5b620002b7878288016200021e565b935050604085015167ffffffffffffffff811115620002d557600080fd5b620002e3878288016200021e565b9250506060620002f68782880162000207565b91505092959194509250565b60006200030e62000321565b90506200031c828262000401565b919050565b6000604051905090565b600067ffffffffffffffff82111562000349576200034862000466565b5b620003548262000495565b9050602081019050919050565b60006200036e8262000375565b9050919050565b600073ffffffffffffffffffffffffffffffffffffffff82169050919050565b60005b83811015620003b557808201518184015260208101905062000398565b83811115620003c5576000848401525b50505050565b60006002820490506001821680620003e457607f821691505b60208210811415620003fb57620003fa62000437565b5b50919050565b6200040c8262000495565b810181811067ffffffffffffffff821117156200042e576200042d62000466565b5b80604052505050565b7f4e487b7100000000000000000000000000000000000000000000000000000000600052602260045260246000fd5b7f4e487b7100000000000000000000000000000000000000000000000000000000600052604160045260246000fd5b6000601f19601f8301169050919050565b620004b18162000361565b8114620004bd57600080fd5b50565b61394b80620004d06000396000f3fe6080604052600436106101665760003560e01c806370a08231116100d1578063bff29cee1161008a578063e985e9c511610064578063e985e9c514610543578063f2fde38b14610580578063f3fe3bc3146105a9578063fe651734146105d457610166565b8063bff29cee146104d1578063c87b56dd146104db578063d5abeb011461051857610166565b806370a08231146103c1578063860d248a146103fe5780638da5cb5b1461042957806395d89b4114610454578063a22cb4651461047f578063bcf0dd8e146104a857610166565b806321cda7901161012357806321cda790146102a157806323b872dd146102de57806340d097c31461030757806342842e0e146103305780636352211e146103595780636c0360eb1461039657610166565b806301ffc9a71461016b57806306fdde03146101a8578063081812fc146101d3578063095ea7b31461021057806318160ddd14610239578063219a582314610264575b600080fd5b34801561017757600080fd5b50610192600480360381019061018d91906127fd565b6105fd565b60405161019f9190612e07565b60405180910390f35b3480156101b457600080fd5b506101bd6106df565b6040516101ca9190612e22565b60405180910390f35b3480156101df57600080fd5b506101fa60048036038101906101f5919061284f565b610771565b6040516102079190612d7e565b60405180910390f35b34801561021c57600080fd5b50610237600480360381019061023291906127c1565b6107f6565b005b34801561024557600080fd5b5061024e61090e565b60405161025b91906130a6565b60405180910390f35b34801561027057600080fd5b5061028b6004803603810190610286919061284f565b610914565b6040516102989190613084565b60405180910390f35b3480156102ad57600080fd5b506102c860048036038101906102c391906126d1565b610a74565b6040516102d59190612de5565b60405180910390f35b3480156102ea57600080fd5b5061030560048036038101906103009190612736565b610cc7565b005b34801561031357600080fd5b5061032e600480360381019061032991906126d1565b610d27565b005b34801561033c57600080fd5b5061035760048036038101906103529190612736565b610e5c565b005b34801561036557600080fd5b50610380600480360381019061037b919061284f565b610ecc565b60405161038d9190612d7e565b60405180910390f35b3480156103a257600080fd5b506103ab610f7e565b6040516103b89190612e22565b60405180910390f35b3480156103cd57600080fd5b506103e860048036038101906103e391906126d1565b611010565b6040516103f591906130a6565b60405180910390f35b34801561040a57600080fd5b506104136110c8565b6040516104209190612e22565b60405180910390f35b34801561043557600080fd5b5061043e611101565b60405161044b9190612d7e565b60405180910390f35b34801561046057600080fd5b50610469611125565b6040516104769190612e22565b60405180910390f35b34801561048b57600080fd5b506104a660048036038101906104a19190612785565b6111b7565b005b3480156104b457600080fd5b506104cf60048036038101906104ca9190612736565b6111cd565b005b6104d9611269565b005b3480156104e757600080fd5b5061050260048036038101906104fd919061284f565b611327565b60405161050f9190612e22565b60405180910390f35b34801561052457600080fd5b5061052d6113cf565b60405161053a91906130a6565b60405180910390f35b34801561054f57600080fd5b5061056a600480360381019061056591906126fa565b6113d4565b6040516105779190612e07565b60405180910390f35b34801561058c57600080fd5b506105a760048036038101906105a291906126d1565b611468565b005b3480156105b557600080fd5b506105be611695565b6040516105cb9190612e22565b60405180910390f35b3480156105e057600080fd5b506105fb60048036038101906105f691906126d1565b6116ce565b005b60007f38211713000000000000000000000000000000000000000000000000000000007bffffffffffffffffffffffffffffffffffffffffffffffffffffffff1916827bffffffffffffffffffffffffffffffffffffffffffffffffffffffff191614806106c857507f5b5e139f000000000000000000000000000000000000000000000000000000007bffffffffffffffffffffffffffffffffffffffffffffffffffffffff1916827bffffffffffffffffffffffffffffffffffffffffffffffffffffffff1916145b806106d857506106d7826117f0565b5b9050919050565b6060600180546106ee906132c5565b80601f016020809104026020016040519081016040528092919081815260200182805461071a906132c5565b80156107675780601f1061073c57610100808354040283529160200191610767565b820191906000526020600020905b81548152906001019060200180831161074a57829003601f168201915b5050505050905090565b600061077c8261185a565b6107bb576040517f08c379a00000000000000000000000000000000000000000000000000000000081526004016107b290612fa4565b60405180910390fd5b6008600083815260200190815260200160002060009054906101000a900473ffffffffffffffffffffffffffffffffffffffff169050919050565b600061080182610ecc565b90508073ffffffffffffffffffffffffffffffffffffffff168373ffffffffffffffffffffffffffffffffffffffff161415610872576040517f08c379a000000000000000000000000000000000000000000000000000000000815260040161086990613004565b60405180910390fd5b8073ffffffffffffffffffffffffffffffffffffffff166108916118c6565b73ffffffffffffffffffffffffffffffffffffffff1614806108c057506108bf816108ba6118c6565b6113d4565b5b6108ff576040517f08c379a00000000000000000000000000000000000000000000000000000000081526004016108f690612f04565b60405180910390fd5b61090983836118ce565b505050565b60045481565b61091c612578565b6109258261185a565b610964576040517f08c379a000000000000000000000000000000000000000000000000000000000815260040161095b90612fe4565b60405180910390fd5b600060405180606001604052806006600086815260200190815260200160002060009054906101000a900473ffffffffffffffffffffffffffffffffffffffff1673ffffffffffffffffffffffffffffffffffffffff1681526020016008600086815260200190815260200160002060009054906101000a900473ffffffffffffffffffffffffffffffffffffffff1673ffffffffffffffffffffffffffffffffffffffff168152602001600060038054610a1e906132c5565b905011610a3a5760405180602001604052806000815250610a66565b6003610a4586611987565b604051602001610a56929190612d5a565b6040516020818303038152906040525b815250905080915050919050565b60606000600760008473ffffffffffffffffffffffffffffffffffffffff1673ffffffffffffffffffffffffffffffffffffffff1681526020019081526020016000205411610af8576040517f08c379a0000000000000000000000000000000000000000000000000000000008152600401610aef90612fc4565b60405180910390fd5b6000600760008473ffffffffffffffffffffffffffffffffffffffff1673ffffffffffffffffffffffffffffffffffffffff16815260200190815260200160002054905060008167ffffffffffffffff811115610b7e577f4e487b7100000000000000000000000000000000000000000000000000000000600052604160045260246000fd5b604051908082528060200260200182016040528015610bac5781602001602082028036833780820191505090505b509050600080600060019050600092505b8351831015610cba578091505b6004548211610ca7578673ffffffffffffffffffffffffffffffffffffffff166006600084815260200190815260200160002060009054906101000a900473ffffffffffffffffffffffffffffffffffffffff1673ffffffffffffffffffffffffffffffffffffffff161415610c945781848481518110610c74577f4e487b7100000000000000000000000000000000000000000000000000000000600052603260045260246000fd5b602002602001018181525050600182610c8d9190613163565b9050610ca7565b8180610c9f906132f7565b925050610bca565b8280610cb2906132f7565b935050610bbd565b8395505050505050919050565b610cd8610cd26118c6565b82611b34565b610d17576040517f08c379a0000000000000000000000000000000000000000000000000000000008152600401610d0e90613024565b60405180910390fd5b610d22838383611c12565b505050565b60008054906101000a900473ffffffffffffffffffffffffffffffffffffffff1673ffffffffffffffffffffffffffffffffffffffff163373ffffffffffffffffffffffffffffffffffffffff16146040518060400160405280600681526020017f303138303031000000000000000000000000000000000000000000000000000081525090610ded576040517f08c379a0000000000000000000000000000000000000000000000000000000008152600401610de49190612e22565b60405180910390fd5b5060646001600454610dff9190613163565b1115610e40576040517f08c379a0000000000000000000000000000000000000000000000000000000008152600401610e3790612e44565b60405180910390fd5b610e598160405180602001604052806000815250611e63565b50565b610e6d610e676118c6565b82611b34565b610eac576040517f08c379a0000000000000000000000000000000000000000000000000000000008152600401610ea390613024565b60405180910390fd5b610ec783838360405180602001604052806000815250611ed0565b505050565b6000806006600084815260200190815260200160002060009054906101000a900473ffffffffffffffffffffffffffffffffffffffff169050600073ffffffffffffffffffffffffffffffffffffffff168173ffffffffffffffffffffffffffffffffffffffff161415610f75576040517f08c379a0000000000000000000000000000000000000000000000000000000008152600401610f6c90612f44565b60405180910390fd5b80915050919050565b606060038054610f8d906132c5565b80601f0160208091040260200160405190810160405280929190818152602001828054610fb9906132c5565b80156110065780601f10610fdb57610100808354040283529160200191611006565b820191906000526020600020905b815481529060010190602001808311610fe957829003601f168201915b5050505050905090565b60008073ffffffffffffffffffffffffffffffffffffffff168273ffffffffffffffffffffffffffffffffffffffff161415611081576040517f08c379a000000000000000000000000000000000000000000000000000000000815260040161107890612f24565b60405180910390fd5b600760008373ffffffffffffffffffffffffffffffffffffffff1673ffffffffffffffffffffffffffffffffffffffff168152602001908152602001600020549050919050565b6040518060400160405280600681526020017f303138303032000000000000000000000000000000000000000000000000000081525081565b60008054906101000a900473ffffffffffffffffffffffffffffffffffffffff1681565b606060028054611134906132c5565b80601f0160208091040260200160405190810160405280929190818152602001828054611160906132c5565b80156111ad5780601f10611182576101008083540402835291602001916111ad565b820191906000526020600020905b81548152906001019060200180831161119057829003601f168201915b5050505050905090565b6111c96111c26118c6565b8383611f2c565b5050565b600b60003373ffffffffffffffffffffffffffffffffffffffff1673ffffffffffffffffffffffffffffffffffffffff16815260200190815260200160002060009054906101000a900460ff16611259576040517f08c379a000000000000000000000000000000000000000000000000000000000815260040161125090613044565b60405180910390fd5b611264838383611c12565b505050565b67016345785d8a000034146112b3576040517f08c379a00000000000000000000000000000000000000000000000000000000081526004016112aa90613064565b60405180910390fd5b606460016004546112c49190613163565b1115611305576040517f08c379a00000000000000000000000000000000000000000000000000000000081526004016112fc90612e44565b60405180910390fd5b6113256113106118c6565b60405180602001604052806000815250611e63565b565b60606113328261185a565b611371576040517f08c379a000000000000000000000000000000000000000000000000000000000815260040161136890612fe4565b60405180910390fd5b600060038054611380906132c5565b90501161139c57604051806020016040528060008152506113c8565b60036113a783611987565b6040516020016113b8929190612d5a565b6040516020818303038152906040525b9050919050565b606481565b6000600960008473ffffffffffffffffffffffffffffffffffffffff1673ffffffffffffffffffffffffffffffffffffffff16815260200190815260200160002060008373ffffffffffffffffffffffffffffffffffffffff1673ffffffffffffffffffffffffffffffffffffffff16815260200190815260200160002060009054906101000a900460ff16905092915050565b60008054906101000a900473ffffffffffffffffffffffffffffffffffffffff1673ffffffffffffffffffffffffffffffffffffffff163373ffffffffffffffffffffffffffffffffffffffff16146040518060400160405280600681526020017f30313830303100000000000000000000000000000000000000000000000000008152509061152e576040517f08c379a00000000000000000000000000000000000000000000000000000000081526004016115259190612e22565b60405180910390fd5b50600073ffffffffffffffffffffffffffffffffffffffff168173ffffffffffffffffffffffffffffffffffffffff1614156040518060400160405280600681526020017f3031383030320000000000000000000000000000000000000000000000000000815250906115d7576040517f08c379a00000000000000000000000000000000000000000000000000000000081526004016115ce9190612e22565b60405180910390fd5b508073ffffffffffffffffffffffffffffffffffffffff1660008054906101000a900473ffffffffffffffffffffffffffffffffffffffff1673ffffffffffffffffffffffffffffffffffffffff167f8be0079c531659141344cd1fd0a4f28419497f9722a3daafe3b4186f6b6457e060405160405180910390a3806000806101000a81548173ffffffffffffffffffffffffffffffffffffffff021916908373ffffffffffffffffffffffffffffffffffffffff16021790555050565b6040518060400160405280600681526020017f303138303031000000000000000000000000000000000000000000000000000081525081565b60008054906101000a900473ffffffffffffffffffffffffffffffffffffffff1673ffffffffffffffffffffffffffffffffffffffff163373ffffffffffffffffffffffffffffffffffffffff16146040518060400160405280600681526020017f303138303031000000000000000000000000000000000000000000000000000081525090611794576040517f08c379a000000000000000000000000000000000000000000000000000000000815260040161178b9190612e22565b60405180910390fd5b506001600b60008373ffffffffffffffffffffffffffffffffffffffff1673ffffffffffffffffffffffffffffffffffffffff16815260200190815260200160002060006101000a81548160ff02191690831515021790555050565b60007f01ffc9a7000000000000000000000000000000000000000000000000000000007bffffffffffffffffffffffffffffffffffffffffffffffffffffffff1916827bffffffffffffffffffffffffffffffffffffffffffffffffffffffff1916149050919050565b60008073ffffffffffffffffffffffffffffffffffffffff166006600084815260200190815260200160002060009054906101000a900473ffffffffffffffffffffffffffffffffffffffff1673ffffffffffffffffffffffffffffffffffffffff1614159050919050565b600033905090565b816008600083815260200190815260200160002060006101000a81548173ffffffffffffffffffffffffffffffffffffffff021916908373ffffffffffffffffffffffffffffffffffffffff160217905550808273ffffffffffffffffffffffffffffffffffffffff1661194183610ecc565b73ffffffffffffffffffffffffffffffffffffffff167f8c5be1e5ebec7d5bd14f71427d1e84f3dd0314c0f7b2291e5b200ac8c7c3b92560405160405180910390a45050565b606060008214156119cf576040518060400160405280600181526020017f30000000000000000000000000000000000000000000000000000000000000008152509050611b2f565b600082905060005b60008214611a015780806119ea906132f7565b915050600a826119fa91906131b9565b91506119d7565b60008167ffffffffffffffff811115611a43577f4e487b7100000000000000000000000000000000000000000000000000000000600052604160045260246000fd5b6040519080825280601f01601f191660200182016040528015611a755781602001600182028036833780820191505090505b5090505b60008514611b2857600182611a8e91906131ea565b9150600a85611a9d9190613340565b6030611aa99190613163565b60f81b818381518110611ae5577f4e487b7100000000000000000000000000000000000000000000000000000000600052603260045260246000fd5b60200101907effffffffffffffffffffffffffffffffffffffffffffffffffffffffffffff1916908160001a905350600a85611b2191906131b9565b9450611a79565b8093505050505b919050565b6000611b3f8261185a565b611b7e576040517f08c379a0000000000000000000000000000000000000000000000000000000008152600401611b7590612ee4565b60405180910390fd5b6000611b8983610ecc565b90508073ffffffffffffffffffffffffffffffffffffffff168473ffffffffffffffffffffffffffffffffffffffff161480611bf857508373ffffffffffffffffffffffffffffffffffffffff16611be084610771565b73ffffffffffffffffffffffffffffffffffffffff16145b80611c095750611c0881856113d4565b5b91505092915050565b8273ffffffffffffffffffffffffffffffffffffffff16611c3282610ecc565b73ffffffffffffffffffffffffffffffffffffffff1614611c88576040517f08c379a0000000000000000000000000000000000000000000000000000000008152600401611c7f90612e84565b60405180910390fd5b600073ffffffffffffffffffffffffffffffffffffffff168273ffffffffffffffffffffffffffffffffffffffff161415611cf8576040517f08c379a0000000000000000000000000000000000000000000000000000000008152600401611cef90612ea4565b60405180910390fd5b611d036000826118ce565b6001600760008573ffffffffffffffffffffffffffffffffffffffff1673ffffffffffffffffffffffffffffffffffffffff1681526020019081526020016000206000828254611d5391906131ea565b925050819055506001600760008473ffffffffffffffffffffffffffffffffffffffff1673ffffffffffffffffffffffffffffffffffffffff1681526020019081526020016000206000828254611daa9190613163565b92505081905550816006600083815260200190815260200160002060006101000a81548173ffffffffffffffffffffffffffffffffffffffff021916908373ffffffffffffffffffffffffffffffffffffffff160217905550808273ffffffffffffffffffffffffffffffffffffffff168473ffffffffffffffffffffffffffffffffffffffff167fddf252ad1be2c89b69c2b068fc378daa952ba7f163c4a11628f55a4df523b3ef60405160405180910390a4505050565b60006001600454611e749190613163565b9050611e836000848385612099565b611ec2576040517f08c379a0000000000000000000000000000000000000000000000000000000008152600401611eb990612e64565b60405180910390fd5b611ecb83612230565b505050565b611edb848484611c12565b611ee784848484612099565b611f26576040517f08c379a0000000000000000000000000000000000000000000000000000000008152600401611f1d90612e64565b60405180910390fd5b50505050565b8173ffffffffffffffffffffffffffffffffffffffff168373ffffffffffffffffffffffffffffffffffffffff161415611f9b576040517f08c379a0000000000000000000000000000000000000000000000000000000008152600401611f9290612ec4565b60405180910390fd5b80600960008573ffffffffffffffffffffffffffffffffffffffff1673ffffffffffffffffffffffffffffffffffffffff16815260200190815260200160002060008473ffffffffffffffffffffffffffffffffffffffff1673ffffffffffffffffffffffffffffffffffffffff16815260200190815260200160002060006101000a81548160ff0219169083151502179055508173ffffffffffffffffffffffffffffffffffffffff168373ffffffffffffffffffffffffffffffffffffffff167f17307eab39ab6107e8899845ad3d59bd9653f200f220920489ca2b5937696c318360405161208c9190612e07565b60405180910390a3505050565b60006120ba8473ffffffffffffffffffffffffffffffffffffffff16612470565b15612223578373ffffffffffffffffffffffffffffffffffffffff1663150b7a026120e36118c6565b8786866040518563ffffffff1660e01b81526004016121059493929190612d99565b602060405180830381600087803b15801561211f57600080fd5b505af192505050801561215057506040513d601f19601f8201168201806040525081019061214d9190612826565b60015b6121d3573d8060008114612180576040519150601f19603f3d011682016040523d82523d6000602084013e612185565b606091505b506000815114156121cb576040517f08c379a00000000000000000000000000000000000000000000000000000000081526004016121c290612e64565b60405180910390fd5b805181602001fd5b63150b7a0260e01b7bffffffffffffffffffffffffffffffffffffffffffffffffffffffff1916817bffffffffffffffffffffffffffffffffffffffffffffffffffffffff191614915050612228565b600190505b949350505050565b600073ffffffffffffffffffffffffffffffffffffffff168173ffffffffffffffffffffffffffffffffffffffff1614156122a0576040517f08c379a000000000000000000000000000000000000000000000000000000000815260040161229790612f84565b60405180910390fd5b600060016004546122b19190613163565b9050600460008154809291906122c6906132f7565b91905055506001600760008473ffffffffffffffffffffffffffffffffffffffff1673ffffffffffffffffffffffffffffffffffffffff168152602001908152602001600020600082825461231b9190613163565b92505081905550816006600083815260200190815260200160002060006101000a81548173ffffffffffffffffffffffffffffffffffffffff021916908373ffffffffffffffffffffffffffffffffffffffff1602179055506124088160038054612385906132c5565b80601f01602080910402602001604051908101604052809291908181526020018280546123b1906132c5565b80156123fe5780601f106123d3576101008083540402835291602001916123fe565b820191906000526020600020905b8154815290600101906020018083116123e157829003601f168201915b5050505050612493565b612410612507565b808273ffffffffffffffffffffffffffffffffffffffff16600073ffffffffffffffffffffffffffffffffffffffff167fddf252ad1be2c89b69c2b068fc378daa952ba7f163c4a11628f55a4df523b3ef60405160405180910390a45050565b6000808273ffffffffffffffffffffffffffffffffffffffff163b119050919050565b61249c8261185a565b6124db576040517f08c379a00000000000000000000000000000000000000000000000000000000081526004016124d290612f64565b60405180910390fd5b80600a600084815260200190815260200160002090805190602001906125029291906125c5565b505050565b6000600560009054906101000a900473ffffffffffffffffffffffffffffffffffffffff1690508073ffffffffffffffffffffffffffffffffffffffff166108fc349081150290604051600060405180830381858888f19350505050158015612574573d6000803e3d6000fd5b5050565b6040518060600160405280600073ffffffffffffffffffffffffffffffffffffffff168152602001600073ffffffffffffffffffffffffffffffffffffffff168152602001606081525090565b8280546125d1906132c5565b90600052602060002090601f0160209004810192826125f3576000855561263a565b82601f1061260c57805160ff191683800117855561263a565b8280016001018555821561263a579182015b8281111561263957825182559160200191906001019061261e565b5b509050612647919061264b565b5090565b5b8082111561266457600081600090555060010161264c565b5090565b600081359050612677816138b9565b92915050565b60008135905061268c816138d0565b92915050565b6000813590506126a1816138e7565b92915050565b6000815190506126b6816138e7565b92915050565b6000813590506126cb816138fe565b92915050565b6000602082840312156126e357600080fd5b60006126f184828501612668565b91505092915050565b6000806040838503121561270d57600080fd5b600061271b85828601612668565b925050602061272c85828601612668565b9150509250929050565b60008060006060848603121561274b57600080fd5b600061275986828701612668565b935050602061276a86828701612668565b925050604061277b868287016126bc565b9150509250925092565b6000806040838503121561279857600080fd5b60006127a685828601612668565b92505060206127b78582860161267d565b9150509250929050565b600080604083850312156127d457600080fd5b60006127e285828601612668565b92505060206127f3858286016126bc565b9150509250929050565b60006020828403121561280f57600080fd5b600061281d84828501612692565b91505092915050565b60006020828403121561283857600080fd5b6000612846848285016126a7565b91505092915050565b60006020828403121561286157600080fd5b600061286f848285016126bc565b91505092915050565b60006128848383612d3c565b60208301905092915050565b6128998161321e565b82525050565b6128a88161321e565b82525050565b60006128b9826130e6565b6128c38185613114565b93506128ce836130c1565b8060005b838110156128ff5781516128e68882612878565b97506128f183613107565b9250506001810190506128d2565b5085935050505092915050565b61291581613230565b82525050565b6000612926826130f1565b6129308185613125565b9350612940818560208601613292565b612949816133fe565b840191505092915050565b600061295f826130fc565b6129698185613136565b9350612979818560208601613292565b612982816133fe565b840191505092915050565b6000612998826130fc565b6129a28185613147565b93506129b2818560208601613292565b6129bb816133fe565b840191505092915050565b60006129d1826130fc565b6129db8185613158565b93506129eb818560208601613292565b80840191505092915050565b60008154612a04816132c5565b612a0e8186613158565b94506001821660008114612a295760018114612a3a57612a6d565b60ff19831686528186019350612a6d565b612a43856130d1565b60005b83811015612a6557815481890152600182019150602081019050612a46565b838801955050505b50505092915050565b6000612a83600f83613147565b9150612a8e8261340f565b602082019050919050565b6000612aa6603283613147565b9150612ab182613438565b604082019050919050565b6000612ac9602583613147565b9150612ad482613487565b604082019050919050565b6000612aec602483613147565b9150612af7826134d6565b604082019050919050565b6000612b0f601983613147565b9150612b1a82613525565b602082019050919050565b6000612b32602c83613147565b9150612b3d8261354e565b604082019050919050565b6000612b55603883613147565b9150612b608261359d565b604082019050919050565b6000612b78602a83613147565b9150612b83826135ec565b604082019050919050565b6000612b9b602983613147565b9150612ba68261363b565b604082019050919050565b6000612bbe602e83613147565b9150612bc98261368a565b604082019050919050565b6000612be1602083613147565b9150612bec826136d9565b602082019050919050565b6000612c04602c83613147565b9150612c0f82613702565b604082019050919050565b6000612c27600983613147565b9150612c3282613751565b602082019050919050565b6000612c4a602f83613147565b9150612c558261377a565b604082019050919050565b6000612c6d602183613147565b9150612c78826137c9565b604082019050919050565b6000612c90603183613147565b9150612c9b82613818565b604082019050919050565b6000612cb3600c83613147565b9150612cbe82613867565b602082019050919050565b6000612cd6600e83613147565b9150612ce182613890565b602082019050919050565b6000606083016000830151612d046000860182612890565b506020830151612d176020860182612890565b5060408301518482036040860152612d2f8282612954565b9150508091505092915050565b612d4581613288565b82525050565b612d5481613288565b82525050565b6000612d6682856129f7565b9150612d7282846129c6565b91508190509392505050565b6000602082019050612d93600083018461289f565b92915050565b6000608082019050612dae600083018761289f565b612dbb602083018661289f565b612dc86040830185612d4b565b8181036060830152612dda818461291b565b905095945050505050565b60006020820190508181036000830152612dff81846128ae565b905092915050565b6000602082019050612e1c600083018461290c565b92915050565b60006020820190508181036000830152612e3c818461298d565b905092915050565b60006020820190508181036000830152612e5d81612a76565b9050919050565b60006020820190508181036000830152612e7d81612a99565b9050919050565b60006020820190508181036000830152612e9d81612abc565b9050919050565b60006020820190508181036000830152612ebd81612adf565b9050919050565b60006020820190508181036000830152612edd81612b02565b9050919050565b60006020820190508181036000830152612efd81612b25565b9050919050565b60006020820190508181036000830152612f1d81612b48565b9050919050565b60006020820190508181036000830152612f3d81612b6b565b9050919050565b60006020820190508181036000830152612f5d81612b8e565b9050919050565b60006020820190508181036000830152612f7d81612bb1565b9050919050565b60006020820190508181036000830152612f9d81612bd4565b9050919050565b60006020820190508181036000830152612fbd81612bf7565b9050919050565b60006020820190508181036000830152612fdd81612c1a565b9050919050565b60006020820190508181036000830152612ffd81612c3d565b9050919050565b6000602082019050818103600083015261301d81612c60565b9050919050565b6000602082019050818103600083015261303d81612c83565b9050919050565b6000602082019050818103600083015261305d81612ca6565b9050919050565b6000602082019050818103600083015261307d81612cc9565b9050919050565b6000602082019050818103600083015261309e8184612cec565b905092915050565b60006020820190506130bb6000830184612d4b565b92915050565b6000819050602082019050919050565b60008190508160005260206000209050919050565b600081519050919050565b600081519050919050565b600081519050919050565b6000602082019050919050565b600082825260208201905092915050565b600082825260208201905092915050565b600082825260208201905092915050565b600082825260208201905092915050565b600081905092915050565b600061316e82613288565b915061317983613288565b9250827fffffffffffffffffffffffffffffffffffffffffffffffffffffffffffffffff038211156131ae576131ad613371565b5b828201905092915050565b60006131c482613288565b91506131cf83613288565b9250826131df576131de6133a0565b5b828204905092915050565b60006131f582613288565b915061320083613288565b92508282101561321357613212613371565b5b828203905092915050565b600061322982613268565b9050919050565b60008115159050919050565b60007fffffffff0000000000000000000000000000000000000000000000000000000082169050919050565b600073ffffffffffffffffffffffffffffffffffffffff82169050919050565b6000819050919050565b60005b838110156132b0578082015181840152602081019050613295565b838111156132bf576000848401525b50505050565b600060028204905060018216806132dd57607f821691505b602082108114156132f1576132f06133cf565b5b50919050565b600061330282613288565b91507fffffffffffffffffffffffffffffffffffffffffffffffffffffffffffffffff82141561333557613334613371565b5b600182019050919050565b600061334b82613288565b915061335683613288565b925082613366576133656133a0565b5b828206905092915050565b7f4e487b7100000000000000000000000000000000000000000000000000000000600052601160045260246000fd5b7f4e487b7100000000000000000000000000000000000000000000000000000000600052601260045260246000fd5b7f4e487b7100000000000000000000000000000000000000000000000000000000600052602260045260246000fd5b6000601f19601f8301169050919050565b7f4e6f206d6f726520746f206d696e740000000000000000000000000000000000600082015250565b7f4552433732313a207472616e7366657220746f206e6f6e20455243373231526560008201527f63656976657220696d706c656d656e7465720000000000000000000000000000602082015250565b7f4552433732313a207472616e736665722066726f6d20696e636f72726563742060008201527f6f776e6572000000000000000000000000000000000000000000000000000000602082015250565b7f4552433732313a207472616e7366657220746f20746865207a65726f2061646460008201527f7265737300000000000000000000000000000000000000000000000000000000602082015250565b7f4552433732313a20617070726f766520746f2063616c6c657200000000000000600082015250565b7f4552433732313a206f70657261746f7220717565727920666f72206e6f6e657860008201527f697374656e7420746f6b656e0000000000000000000000000000000000000000602082015250565b7f4552433732313a20617070726f76652063616c6c6572206973206e6f74206f7760008201527f6e6572206e6f7220617070726f76656420666f7220616c6c0000000000000000602082015250565b7f4552433732313a2062616c616e636520717565727920666f7220746865207a6560008201527f726f206164647265737300000000000000000000000000000000000000000000602082015250565b7f4552433732313a206f776e657220717565727920666f72206e6f6e657869737460008201527f656e7420746f6b656e0000000000000000000000000000000000000000000000602082015250565b7f45524337323155524953746f726167653a2055524920736574206f66206e6f6e60008201527f6578697374656e7420746f6b656e000000000000000000000000000000000000602082015250565b7f4552433732313a206d696e7420746f20746865207a65726f2061646472657373600082015250565b7f4552433732313a20617070726f76656420717565727920666f72206e6f6e657860008201527f697374656e7420746f6b656e0000000000000000000000000000000000000000602082015250565b7f6e6f20746f6b656e730000000000000000000000000000000000000000000000600082015250565b7f4552433732314d657461646174613a2055524920717565727920666f72206e6f60008201527f6e6578697374656e7420746f6b656e0000000000000000000000000000000000602082015250565b7f4552433732313a20617070726f76616c20746f2063757272656e74206f776e6560008201527f7200000000000000000000000000000000000000000000000000000000000000602082015250565b7f4552433732313a207472616e736665722063616c6c6572206973206e6f74206f60008201527f776e6572206e6f7220617070726f766564000000000000000000000000000000602082015250565b7f6e6f7420617070726f7665640000000000000000000000000000000000000000600082015250565b7f4e65656420302e31206574686572000000000000000000000000000000000000600082015250565b6138c28161321e565b81146138cd57600080fd5b50565b6138d981613230565b81146138e457600080fd5b50565b6138f08161323c565b81146138fb57600080fd5b50565b61390781613288565b811461391257600080fd5b5056fea2646970667358221220098bfc18b4028fd85085de9833c705b4ba67d084e8a1cbe4cb81d15ca1183d8064736f6c63430008040033",
  "linkReferences": {},
  "deployedLinkReferences": {}
}